{
  "_format": "hh-sol-artifact-1",
  "contractName": "GPTStore",
  "sourceName": "contracts/GPTStore.sol",
  "abi": [
    {
      "inputs": [],
      "stateMutability": "nonpayable",
      "type": "constructor"
    },
    {
      "inputs": [
        {
          "internalType": "address",
          "name": "sender",
          "type": "address"
        },
        {
          "internalType": "uint256",
          "name": "tokenId",
          "type": "uint256"
        },
        {
          "internalType": "address",
          "name": "owner",
          "type": "address"
        }
      ],
      "name": "ERC721IncorrectOwner",
      "type": "error"
    },
    {
      "inputs": [
        {
          "internalType": "address",
          "name": "operator",
          "type": "address"
        },
        {
          "internalType": "uint256",
          "name": "tokenId",
          "type": "uint256"
        }
      ],
      "name": "ERC721InsufficientApproval",
      "type": "error"
    },
    {
      "inputs": [
        {
          "internalType": "address",
          "name": "approver",
          "type": "address"
        }
      ],
      "name": "ERC721InvalidApprover",
      "type": "error"
    },
    {
      "inputs": [
        {
          "internalType": "address",
          "name": "operator",
          "type": "address"
        }
      ],
      "name": "ERC721InvalidOperator",
      "type": "error"
    },
    {
      "inputs": [
        {
          "internalType": "address",
          "name": "owner",
          "type": "address"
        }
      ],
      "name": "ERC721InvalidOwner",
      "type": "error"
    },
    {
      "inputs": [
        {
          "internalType": "address",
          "name": "receiver",
          "type": "address"
        }
      ],
      "name": "ERC721InvalidReceiver",
      "type": "error"
    },
    {
      "inputs": [
        {
          "internalType": "address",
          "name": "sender",
          "type": "address"
        }
      ],
      "name": "ERC721InvalidSender",
      "type": "error"
    },
    {
      "inputs": [
        {
          "internalType": "uint256",
          "name": "tokenId",
          "type": "uint256"
        }
      ],
      "name": "ERC721NonexistentToken",
      "type": "error"
    },
    {
      "inputs": [],
      "name": "ReentrancyGuardReentrantCall",
      "type": "error"
    },
    {
      "anonymous": false,
      "inputs": [
        {
          "indexed": true,
          "internalType": "address",
          "name": "owner",
          "type": "address"
        },
        {
          "indexed": true,
          "internalType": "address",
          "name": "approved",
          "type": "address"
        },
        {
          "indexed": true,
          "internalType": "uint256",
          "name": "tokenId",
          "type": "uint256"
        }
      ],
      "name": "Approval",
      "type": "event"
    },
    {
      "anonymous": false,
      "inputs": [
        {
          "indexed": true,
          "internalType": "address",
          "name": "owner",
          "type": "address"
        },
        {
          "indexed": true,
          "internalType": "address",
          "name": "operator",
          "type": "address"
        },
        {
          "indexed": false,
          "internalType": "bool",
          "name": "approved",
          "type": "bool"
        }
      ],
      "name": "ApprovalForAll",
      "type": "event"
    },
    {
      "anonymous": false,
      "inputs": [
        {
          "indexed": false,
          "internalType": "uint256",
          "name": "_fromTokenId",
          "type": "uint256"
        },
        {
          "indexed": false,
          "internalType": "uint256",
          "name": "_toTokenId",
          "type": "uint256"
        }
      ],
      "name": "BatchMetadataUpdate",
      "type": "event"
    },
    {
      "anonymous": false,
      "inputs": [
        {
          "indexed": false,
          "internalType": "uint256",
          "name": "_tokenId",
          "type": "uint256"
        }
      ],
      "name": "MetadataUpdate",
      "type": "event"
    },
    {
      "anonymous": false,
      "inputs": [
        {
          "indexed": false,
          "internalType": "uint256",
          "name": "nftId",
          "type": "uint256"
        },
        {
          "indexed": true,
          "internalType": "address",
          "name": "user",
          "type": "address"
        }
      ],
      "name": "Rent",
      "type": "event"
    },
    {
      "anonymous": false,
      "inputs": [
        {
          "indexed": true,
          "internalType": "address",
          "name": "from",
          "type": "address"
        },
        {
          "indexed": true,
          "internalType": "address",
          "name": "to",
          "type": "address"
        },
        {
          "indexed": true,
          "internalType": "uint256",
          "name": "tokenId",
          "type": "uint256"
        }
      ],
      "name": "Transfer",
      "type": "event"
    },
    {
      "anonymous": false,
      "inputs": [
        {
          "indexed": true,
          "internalType": "uint256",
          "name": "tokenId",
          "type": "uint256"
        },
        {
          "indexed": true,
          "internalType": "address",
          "name": "user",
          "type": "address"
        },
        {
          "indexed": false,
          "internalType": "uint64",
          "name": "expires",
          "type": "uint64"
        }
      ],
      "name": "UpdateUser",
      "type": "event"
    },
    {
      "inputs": [
        {
          "internalType": "address",
          "name": "to",
          "type": "address"
        },
        {
          "internalType": "uint256",
          "name": "tokenId",
          "type": "uint256"
        }
      ],
      "name": "approve",
      "outputs": [],
      "stateMutability": "nonpayable",
      "type": "function"
    },
    {
      "inputs": [
        {
          "internalType": "uint256",
          "name": "",
          "type": "uint256"
        }
      ],
      "name": "assistantsGroups",
      "outputs": [
        {
          "internalType": "string",
          "name": "assistantID",
          "type": "string"
        },
        {
          "internalType": "uint256",
          "name": "pricePerHour",
          "type": "uint256"
        },
        {
          "internalType": "address",
          "name": "owner",
          "type": "address"
        }
      ],
      "stateMutability": "view",
      "type": "function"
    },
    {
      "inputs": [
        {
          "internalType": "address",
          "name": "owner",
          "type": "address"
        }
      ],
      "name": "balanceOf",
      "outputs": [
        {
          "internalType": "uint256",
          "name": "",
          "type": "uint256"
        }
      ],
      "stateMutability": "view",
      "type": "function"
    },
    {
      "inputs": [],
      "name": "cleanUpOldRentals",
      "outputs": [],
      "stateMutability": "nonpayable",
      "type": "function"
    },
    {
      "inputs": [
        {
          "internalType": "uint256",
          "name": "tokenId",
          "type": "uint256"
        }
      ],
      "name": "extendRental",
      "outputs": [],
      "stateMutability": "payable",
      "type": "function"
    },
    {
      "inputs": [],
      "name": "getAllAssistantDetails",
      "outputs": [
        {
          "components": [
            {
              "internalType": "string",
              "name": "assistantID",
              "type": "string"
            },
            {
              "internalType": "uint256",
              "name": "pricePerHour",
              "type": "uint256"
            },
            {
              "internalType": "address",
              "name": "owner",
              "type": "address"
            }
          ],
          "internalType": "struct GPTStore.Assistant[]",
          "name": "",
          "type": "tuple[]"
        }
      ],
      "stateMutability": "view",
      "type": "function"
    },
    {
      "inputs": [
        {
          "internalType": "uint256",
          "name": "tokenId",
          "type": "uint256"
        }
      ],
      "name": "getApproved",
      "outputs": [
        {
          "internalType": "address",
          "name": "",
          "type": "address"
        }
      ],
      "stateMutability": "view",
      "type": "function"
    },
    {
      "inputs": [],
      "name": "getLatestPrice",
      "outputs": [
        {
          "internalType": "int256",
          "name": "",
          "type": "int256"
        }
      ],
      "stateMutability": "view",
      "type": "function"
    },
    {
      "inputs": [],
      "name": "getUserRentedAssistants",
      "outputs": [
        {
          "components": [
            {
              "internalType": "address",
              "name": "user",
              "type": "address"
            },
            {
              "internalType": "string",
              "name": "URI",
              "type": "string"
            },
            {
              "internalType": "uint64",
              "name": "expires",
              "type": "uint64"
            },
            {
              "internalType": "uint256",
              "name": "payment",
              "type": "uint256"
            },
            {
              "internalType": "uint256",
              "name": "assistantNo",
              "type": "uint256"
            },
            {
              "internalType": "uint256",
              "name": "timeRequested",
              "type": "uint256"
            }
          ],
          "internalType": "struct GPTStore.UserInfo[]",
          "name": "",
          "type": "tuple[]"
        }
      ],
      "stateMutability": "view",
      "type": "function"
    },
    {
      "inputs": [
        {
          "internalType": "address",
          "name": "owner",
          "type": "address"
        },
        {
          "internalType": "address",
          "name": "operator",
          "type": "address"
        }
      ],
      "name": "isApprovedForAll",
      "outputs": [
        {
          "internalType": "bool",
          "name": "",
          "type": "bool"
        }
      ],
      "stateMutability": "view",
      "type": "function"
    },
    {
      "inputs": [],
      "name": "maxRentalTime",
      "outputs": [
        {
          "internalType": "uint256",
          "name": "",
          "type": "uint256"
        }
      ],
      "stateMutability": "view",
      "type": "function"
    },
    {
      "inputs": [],
      "name": "minRentalTime",
      "outputs": [
        {
          "internalType": "uint256",
          "name": "",
          "type": "uint256"
        }
      ],
      "stateMutability": "view",
      "type": "function"
    },
    {
      "inputs": [],
      "name": "name",
      "outputs": [
        {
          "internalType": "string",
          "name": "",
          "type": "string"
        }
      ],
      "stateMutability": "view",
      "type": "function"
    },
    {
      "inputs": [
        {
          "internalType": "uint256",
          "name": "tokenId",
          "type": "uint256"
        }
      ],
      "name": "ownerOf",
      "outputs": [
        {
          "internalType": "address",
          "name": "",
          "type": "address"
        }
      ],
      "stateMutability": "view",
      "type": "function"
    },
    {
      "inputs": [
        {
          "internalType": "uint256",
          "name": "id",
          "type": "uint256"
        }
      ],
      "name": "removeTemplate",
      "outputs": [],
      "stateMutability": "nonpayable",
      "type": "function"
    },
    {
      "inputs": [
        {
          "internalType": "uint256",
          "name": "assistantNo",
          "type": "uint256"
        }
      ],
      "name": "rent",
      "outputs": [],
      "stateMutability": "payable",
      "type": "function"
    },
    {
      "inputs": [
        {
          "internalType": "address",
          "name": "from",
          "type": "address"
        },
        {
          "internalType": "address",
          "name": "to",
          "type": "address"
        },
        {
          "internalType": "uint256",
          "name": "tokenId",
          "type": "uint256"
        }
      ],
      "name": "safeTransferFrom",
      "outputs": [],
      "stateMutability": "nonpayable",
      "type": "function"
    },
    {
      "inputs": [
        {
          "internalType": "address",
          "name": "from",
          "type": "address"
        },
        {
          "internalType": "address",
          "name": "to",
          "type": "address"
        },
        {
          "internalType": "uint256",
          "name": "tokenId",
          "type": "uint256"
        },
        {
          "internalType": "bytes",
          "name": "data",
          "type": "bytes"
        }
      ],
      "name": "safeTransferFrom",
      "outputs": [],
      "stateMutability": "nonpayable",
      "type": "function"
    },
    {
      "inputs": [
        {
          "internalType": "address",
          "name": "operator",
          "type": "address"
        },
        {
          "internalType": "bool",
          "name": "approved",
          "type": "bool"
        }
      ],
      "name": "setApprovalForAll",
      "outputs": [],
      "stateMutability": "nonpayable",
      "type": "function"
    },
    {
      "inputs": [
        {
          "internalType": "string",
          "name": "assistantId",
          "type": "string"
        },
        {
          "internalType": "uint256",
          "name": "priceHour",
          "type": "uint256"
        }
      ],
      "name": "setAssistants",
      "outputs": [],
      "stateMutability": "nonpayable",
      "type": "function"
    },
    {
      "inputs": [
        {
          "internalType": "uint256",
          "name": "time",
          "type": "uint256"
        }
      ],
      "name": "setMaxRentalTime",
      "outputs": [],
      "stateMutability": "nonpayable",
      "type": "function"
    },
    {
      "inputs": [
        {
          "internalType": "uint256",
          "name": "time",
          "type": "uint256"
        }
      ],
      "name": "setMinRentalTime",
      "outputs": [],
      "stateMutability": "nonpayable",
      "type": "function"
    },
    {
      "inputs": [
        {
          "internalType": "uint256",
          "name": "",
          "type": "uint256"
        },
        {
          "internalType": "address",
          "name": "",
          "type": "address"
        },
        {
          "internalType": "uint64",
          "name": "",
          "type": "uint64"
        }
      ],
      "name": "setUser",
      "outputs": [],
      "stateMutability": "pure",
      "type": "function"
    },
    {
      "inputs": [
        {
          "internalType": "uint256",
          "name": "tokenId",
          "type": "uint256"
        }
      ],
      "name": "stopRental",
      "outputs": [],
      "stateMutability": "nonpayable",
      "type": "function"
    },
    {
      "inputs": [
        {
          "internalType": "bytes4",
          "name": "interfaceId",
          "type": "bytes4"
        }
      ],
      "name": "supportsInterface",
      "outputs": [
        {
          "internalType": "bool",
          "name": "",
          "type": "bool"
        }
      ],
      "stateMutability": "view",
      "type": "function"
    },
    {
      "inputs": [],
      "name": "symbol",
      "outputs": [
        {
          "internalType": "string",
          "name": "",
          "type": "string"
        }
      ],
      "stateMutability": "view",
      "type": "function"
    },
    {
      "inputs": [
        {
          "internalType": "uint256",
          "name": "tokenId",
          "type": "uint256"
        }
      ],
      "name": "tokenURI",
      "outputs": [
        {
          "internalType": "string",
          "name": "",
          "type": "string"
        }
      ],
      "stateMutability": "view",
      "type": "function"
    },
    {
      "inputs": [
        {
          "internalType": "address",
          "name": "from",
          "type": "address"
        },
        {
          "internalType": "address",
          "name": "to",
          "type": "address"
        },
        {
          "internalType": "uint256",
          "name": "tokenId",
          "type": "uint256"
        }
      ],
      "name": "transferFrom",
      "outputs": [],
      "stateMutability": "nonpayable",
      "type": "function"
    },
    {
      "inputs": [
        {
          "internalType": "uint256",
          "name": "tokenId",
          "type": "uint256"
        }
      ],
      "name": "userExpires",
      "outputs": [
        {
          "internalType": "uint256",
          "name": "",
          "type": "uint256"
        }
      ],
      "stateMutability": "view",
      "type": "function"
    },
    {
      "inputs": [
        {
          "internalType": "uint256",
          "name": "tokenId",
          "type": "uint256"
        }
      ],
      "name": "userOf",
      "outputs": [
        {
          "internalType": "address",
          "name": "",
          "type": "address"
        }
      ],
      "stateMutability": "view",
      "type": "function"
    }
  ],
  "bytecode": "0x608060405260016009556001600a55610708600d5562278d00600e553480156200002857600080fd5b506040518060400160405280600881526020017f47505453746f72650000000000000000000000000000000000000000000000008152506040518060400160405280600381526020017f47505400000000000000000000000000000000000000000000000000000000008152508160009081620000a69190620003d9565b508060019081620000b89190620003d9565b5050506001600781905550735498bb86bc934c8d34fda08e81d444153d0d06ad600860006101000a81548173ffffffffffffffffffffffffffffffffffffffff021916908373ffffffffffffffffffffffffffffffffffffffff16021790555033600b60006101000a81548173ffffffffffffffffffffffffffffffffffffffff021916908373ffffffffffffffffffffffffffffffffffffffff160217905550620004c0565b600081519050919050565b7f4e487b7100000000000000000000000000000000000000000000000000000000600052604160045260246000fd5b7f4e487b7100000000000000000000000000000000000000000000000000000000600052602260045260246000fd5b60006002820490506001821680620001e157607f821691505b602082108103620001f757620001f662000199565b5b50919050565b60008190508160005260206000209050919050565b60006020601f8301049050919050565b600082821b905092915050565b600060088302620002617fffffffffffffffffffffffffffffffffffffffffffffffffffffffffffffffff8262000222565b6200026d868362000222565b95508019841693508086168417925050509392505050565b6000819050919050565b6000819050919050565b6000620002ba620002b4620002ae8462000285565b6200028f565b62000285565b9050919050565b6000819050919050565b620002d68362000299565b620002ee620002e582620002c1565b8484546200022f565b825550505050565b600090565b62000305620002f6565b62000312818484620002cb565b505050565b5b818110156200033a576200032e600082620002fb565b60018101905062000318565b5050565b601f82111562000389576200035381620001fd565b6200035e8462000212565b810160208510156200036e578190505b620003866200037d8562000212565b83018262000317565b50505b505050565b600082821c905092915050565b6000620003ae600019846008026200038e565b1980831691505092915050565b6000620003c983836200039b565b9150826002028217905092915050565b620003e4826200015f565b67ffffffffffffffff8111156200040057620003ff6200016a565b5b6200040c8254620001c8565b620004198282856200033e565b600060209050601f8311600181146200045157600084156200043c578287015190505b620004488582620003bb565b865550620004b8565b601f1984166200046186620001fd565b60005b828110156200048b5784890151825560018201915060208501945060208101905062000464565b86831015620004ab5784890151620004a7601f8916826200039b565b8355505b6001600288020188555050505b505050505050565b614db480620004d06000396000f3fe6080604052600436106101cd5760003560e01c806370a08231116100f7578063b88d4fde11610095578063cc505cee11610064578063cc505cee1461068d578063e030565e146106b6578063e1eb3ea9146106df578063e985e9c5146106fb576101cd565b8063b88d4fde146105c1578063c04d0ab7146105ea578063c2f1f14a14610613578063c87b56dd14610650576101cd565b80638e15f473116100d15780638e15f473146105055780638fc88c481461053057806395d89b411461056d578063a22cb46514610598576101cd565b806370a08231146104955780637456be7d146104d25780637dbed446146104ee576101cd565b806323b872dd1161016f5780635ebbfd471161013e5780635ebbfd47146103d95780636352211e1461040457806367c5d1b114610441578063707c39521461046c576101cd565b806323b872dd146103315780632ce7a0171461035a57806342842e0e14610385578063543d937c146103ae576101cd565b8063095ea7b3116101ab578063095ea7b314610277578063156ecc3d146102a0578063166ce434146102c957806320f8a14d146102f2576101cd565b806301ffc9a7146101d257806306fdde031461020f578063081812fc1461023a575b600080fd5b3480156101de57600080fd5b506101f960048036038101906101f491906135b3565b610738565b60405161020691906135fb565b60405180910390f35b34801561021b57600080fd5b506102246107b2565b60405161023191906136a6565b60405180910390f35b34801561024657600080fd5b50610261600480360381019061025c91906136fe565b610844565b60405161026e919061376c565b60405180910390f35b34801561028357600080fd5b5061029e600480360381019061029991906137b3565b610860565b005b3480156102ac57600080fd5b506102c760048036038101906102c291906136fe565b610876565b005b3480156102d557600080fd5b506102f060048036038101906102eb91906136fe565b610bd2565b005b3480156102fe57600080fd5b50610319600480360381019061031491906136fe565b610bdc565b60405161032893929190613802565b60405180910390f35b34801561033d57600080fd5b5061035860048036038101906103539190613840565b610cae565b005b34801561036657600080fd5b5061036f610db0565b60405161037c9190613893565b60405180910390f35b34801561039157600080fd5b506103ac60048036038101906103a79190613840565b610db6565b005b3480156103ba57600080fd5b506103c3610dd6565b6040516103d09190613a84565b60405180910390f35b3480156103e557600080fd5b506103ee611033565b6040516103fb9190613bb8565b60405180910390f35b34801561041057600080fd5b5061042b600480360381019061042691906136fe565b611209565b604051610438919061376c565b60405180910390f35b34801561044d57600080fd5b5061045661121b565b6040516104639190613893565b60405180910390f35b34801561047857600080fd5b50610493600480360381019061048e91906136fe565b611221565b005b3480156104a157600080fd5b506104bc60048036038101906104b79190613bda565b61122b565b6040516104c99190613893565b60405180910390f35b6104ec60048036038101906104e791906136fe565b6112e5565b005b3480156104fa57600080fd5b5061050361184c565b005b34801561051157600080fd5b5061051a6118d7565b6040516105279190613c20565b60405180910390f35b34801561053c57600080fd5b50610557600480360381019061055291906136fe565b6119ce565b6040516105649190613893565b60405180910390f35b34801561057957600080fd5b50610582611a0c565b60405161058f91906136a6565b60405180910390f35b3480156105a457600080fd5b506105bf60048036038101906105ba9190613c67565b611a9e565b005b3480156105cd57600080fd5b506105e860048036038101906105e39190613ddc565b611ab4565b005b3480156105f657600080fd5b50610611600480360381019061060c91906136fe565b611ad1565b005b34801561061f57600080fd5b5061063a600480360381019061063591906136fe565b611c14565b604051610647919061376c565b60405180910390f35b34801561065c57600080fd5b50610677600480360381019061067291906136fe565b611c99565b60405161068491906136a6565b60405180910390f35b34801561069957600080fd5b506106b460048036038101906106af9190613f00565b611dac565b005b3480156106c257600080fd5b506106dd60048036038101906106d89190613f88565b611ed0565b005b6106f960048036038101906106f491906136fe565b611f0b565b005b34801561070757600080fd5b50610722600480360381019061071d9190613fdb565b612271565b60405161072f91906135fb565b60405180910390f35b60007fad092b5c000000000000000000000000000000000000000000000000000000007bffffffffffffffffffffffffffffffffffffffffffffffffffffffff1916827bffffffffffffffffffffffffffffffffffffffffffffffffffffffff191614806107ab57506107aa82612305565b5b9050919050565b6060600080546107c19061404a565b80601f01602080910402602001604051908101604052809291908181526020018280546107ed9061404a565b801561083a5780601f1061080f5761010080835404028352916020019161083a565b820191906000526020600020905b81548152906001019060200180831161081d57829003601f168201915b5050505050905090565b600061084f82612366565b50610859826123ee565b9050919050565b610872828261086d61242b565b612433565b5050565b61087e612445565b3373ffffffffffffffffffffffffffffffffffffffff1661089e82611c14565b73ffffffffffffffffffffffffffffffffffffffff16146108f4576040517f08c379a00000000000000000000000000000000000000000000000000000000081526004016108eb906140c7565b60405180910390fd5b6000600f600083815260200190815260200160002090506000601060008360040154815260200190815260200160002060405180606001604052908160008201805461093f9061404a565b80601f016020809104026020016040519081016040528092919081815260200182805461096b9061404a565b80156109b85780601f1061098d576101008083540402835291602001916109b8565b820191906000526020600020905b81548152906001019060200180831161099b57829003601f168201915b50505050508152602001600182015481526020016002820160009054906101000a900473ffffffffffffffffffffffffffffffffffffffff1673ffffffffffffffffffffffffffffffffffffffff1673ffffffffffffffffffffffffffffffffffffffff168152505090506000603c428460020160009054906101000a900467ffffffffffffffff1667ffffffffffffffff16610a559190614116565b610a5f9190614116565b905060008111610aa4576040517f08c379a0000000000000000000000000000000000000000000000000000000008152600401610a9b90614196565b60405180910390fd5b3373ffffffffffffffffffffffffffffffffffffffff167f381c82ace1dd48ccb61648426892270a1ceb48c6ae1f5ce2872683ec0dc0d580600954604051610aec9190613893565b60405180910390a26000610e10836020015183610b0991906141b6565b610b139190614227565b905080471015610b58576040517f08c379a0000000000000000000000000000000000000000000000000000000008152600401610b4f906142a4565b60405180910390fd5b3373ffffffffffffffffffffffffffffffffffffffff166108fc829081150290604051600060405180830381858888f19350505050158015610b9e573d6000803e3d6000fd5b5080846003016000828254610bb39190614116565b92505081905550610bc38561248b565b50505050610bcf612511565b50565b80600e8190555050565b6010602052806000526040600020600091509050806000018054610bff9061404a565b80601f0160208091040260200160405190810160405280929190818152602001828054610c2b9061404a565b8015610c785780601f10610c4d57610100808354040283529160200191610c78565b820191906000526020600020905b815481529060010190602001808311610c5b57829003601f168201915b5050505050908060010154908060020160009054906101000a900473ffffffffffffffffffffffffffffffffffffffff16905083565b600073ffffffffffffffffffffffffffffffffffffffff168273ffffffffffffffffffffffffffffffffffffffff1603610d205760006040517f64a0ae92000000000000000000000000000000000000000000000000000000008152600401610d17919061376c565b60405180910390fd5b6000610d348383610d2f61242b565b61251b565b90508373ffffffffffffffffffffffffffffffffffffffff168173ffffffffffffffffffffffffffffffffffffffff1614610daa578382826040517f64283d7b000000000000000000000000000000000000000000000000000000008152600401610da1939291906142c4565b60405180910390fd5b50505050565b600d5481565b610dd183838360405180602001604052806000815250611ab4565b505050565b60606000601160003373ffffffffffffffffffffffffffffffffffffffff1673ffffffffffffffffffffffffffffffffffffffff16815260200190815260200160002090506000818054905067ffffffffffffffff811115610e3b57610e3a613cb1565b5b604051908082528060200260200182016040528015610e7457816020015b610e6161345d565b815260200190600190039081610e595790505b50905060005b828054905081101561102a57600f6000848381548110610e9d57610e9c6142fb565b5b906000526020600020015481526020019081526020016000206040518060c00160405290816000820160009054906101000a900473ffffffffffffffffffffffffffffffffffffffff1673ffffffffffffffffffffffffffffffffffffffff1673ffffffffffffffffffffffffffffffffffffffff168152602001600182018054610f279061404a565b80601f0160208091040260200160405190810160405280929190818152602001828054610f539061404a565b8015610fa05780601f10610f7557610100808354040283529160200191610fa0565b820191906000526020600020905b815481529060010190602001808311610f8357829003601f168201915b505050505081526020016002820160009054906101000a900467ffffffffffffffff1667ffffffffffffffff1667ffffffffffffffff168152602001600382015481526020016004820154815260200160058201548152505082828151811061100c5761100b6142fb565b5b602002602001018190525080806110229061432a565b915050610e7a565b50809250505090565b60606000600c8054905067ffffffffffffffff81111561105657611055613cb1565b5b60405190808252806020026020018201604052801561108f57816020015b61107c6134b3565b8152602001906001900390816110745790505b50905060005b600c805490508110156112015760106000600c83815481106110ba576110b96142fb565b5b906000526020600020015481526020019081526020016000206040518060600160405290816000820180546110ee9061404a565b80601f016020809104026020016040519081016040528092919081815260200182805461111a9061404a565b80156111675780601f1061113c57610100808354040283529160200191611167565b820191906000526020600020905b81548152906001019060200180831161114a57829003601f168201915b50505050508152602001600182015481526020016002820160009054906101000a900473ffffffffffffffffffffffffffffffffffffffff1673ffffffffffffffffffffffffffffffffffffffff1673ffffffffffffffffffffffffffffffffffffffff16815250508282815181106111e3576111e26142fb565b5b602002602001018190525080806111f99061432a565b915050611095565b508091505090565b600061121482612366565b9050919050565b600e5481565b80600d8190555050565b60008073ffffffffffffffffffffffffffffffffffffffff168273ffffffffffffffffffffffffffffffffffffffff160361129e5760006040517f89c62b64000000000000000000000000000000000000000000000000000000008152600401611295919061376c565b60405180910390fd5b600360008373ffffffffffffffffffffffffffffffffffffffff1673ffffffffffffffffffffffffffffffffffffffff168152602001908152602001600020549050919050565b6112ed612445565b806009819055503373ffffffffffffffffffffffffffffffffffffffff1661131482611c14565b73ffffffffffffffffffffffffffffffffffffffff160361136a576040517f08c379a0000000000000000000000000000000000000000000000000000000008152600401611361906143be565b60405180910390fd5b60006010600083815260200190815260200160002060010154116113c3576040517f08c379a00000000000000000000000000000000000000000000000000000000081526004016113ba9061442a565b60405180910390fd5b6113cb61184c565b60006010600083815260200190815260200160002060010154610e10346113f291906141b6565b6113fc9190614227565b9050600d54811015611443576040517f08c379a000000000000000000000000000000000000000000000000000000000815260040161143a90614496565b60405180910390fd5b600e54811115611488576040517f08c379a000000000000000000000000000000000000000000000000000000000815260040161147f90614502565b60405180910390fd5b3373ffffffffffffffffffffffffffffffffffffffff167f381c82ace1dd48ccb61648426892270a1ceb48c6ae1f5ce2872683ec0dc0d5806009546040516114d09190613893565b60405180910390a26010600083815260200190815260200160002060020160009054906101000a900473ffffffffffffffffffffffffffffffffffffffff1673ffffffffffffffffffffffffffffffffffffffff166108fc349081150290604051600060405180830381858888f19350505050158015611554573d6000803e3d6000fd5b5061156133600954612735565b61160b6009546010600085815260200190815260200160002060000180546115889061404a565b80601f01602080910402602001604051908101604052809291908181526020018280546115b49061404a565b80156116015780601f106115d657610100808354040283529160200191611601565b820191906000526020600020905b8154815290600101906020018083116115e457829003601f168201915b505050505061282e565b6000600f6000600954815260200190815260200160002090506010600084815260200190815260200160002060000181600101908161164a91906146f9565b50338160000160006101000a81548173ffffffffffffffffffffffffffffffffffffffff021916908373ffffffffffffffffffffffffffffffffffffffff160217905550814261169a91906147e1565b8160020160006101000a81548167ffffffffffffffff021916908367ffffffffffffffff1602179055508281600401819055508181600501819055503481600301819055508060000160009054906101000a900473ffffffffffffffffffffffffffffffffffffffff1673ffffffffffffffffffffffffffffffffffffffff166009547f4e06b4e7000e659094299b3533b47b6aa8ad048e95e872d23d1f4ee55af89cfe8360020160009054906101000a900467ffffffffffffffff166040516117649190614824565b60405180910390a3601160003373ffffffffffffffffffffffffffffffffffffffff1673ffffffffffffffffffffffffffffffffffffffff1681526020019081526020016000206009549080600181540180825580915050600190039060005260206000200160009091909190915055600160126000600954815260200190815260200160002060003373ffffffffffffffffffffffffffffffffffffffff1673ffffffffffffffffffffffffffffffffffffffff16815260200190815260200160002060006101000a81548160ff0219169083151502179055505050611849612511565b50565b6000600190505b6009548110156118d457600073ffffffffffffffffffffffffffffffffffffffff1661187e82611c14565b73ffffffffffffffffffffffffffffffffffffffff16141580156118a95750426118a7826119ce565b105b156118c1576118b78161288a565b6118c08161248b565b5b80806118cc9061432a565b915050611853565b50565b6000806000600860009054906101000a900473ffffffffffffffffffffffffffffffffffffffff1673ffffffffffffffffffffffffffffffffffffffff1663feaf968c6040518163ffffffff1660e01b815260040160a060405180830381865afa158015611949573d6000803e3d6000fd5b505050506040513d601f19601f8201168201806040525081019061196d91906148c2565b50935050925050600081116119b7576040517f08c379a00000000000000000000000000000000000000000000000000000000081526004016119ae906149af565b60405180910390fd5b6305f5e100826119c791906149cf565b9250505090565b6000600f600083815260200190815260200160002060020160009054906101000a900467ffffffffffffffff1667ffffffffffffffff169050919050565b606060018054611a1b9061404a565b80601f0160208091040260200160405190810160405280929190818152602001828054611a479061404a565b8015611a945780601f10611a6957610100808354040283529160200191611a94565b820191906000526020600020905b815481529060010190602001808311611a7757829003601f168201915b5050505050905090565b611ab0611aa961242b565b83836129c3565b5050565b611abf848484610cae565b611acb84848484612b32565b50505050565b6010600082815260200190815260200160002060008082016000611af591906134ea565b60018201600090556002820160006101000a81549073ffffffffffffffffffffffffffffffffffffffff02191690555050600080600090505b600c80549050811015611b7b5782600c8281548110611b5057611b4f6142fb565b5b906000526020600020015403611b6857809150611b7b565b8080611b739061432a565b915050611b2e565b506001600c80549050611b8e9190614116565b811015611be857600c6001600c80549050611ba99190614116565b81548110611bba57611bb96142fb565b5b9060005260206000200154600c8281548110611bd957611bd86142fb565b5b90600052602060002001819055505b600c805480611bfa57611bf9614a39565b5b600190038181906000526020600020016000905590555050565b600042600f600084815260200190815260200160002060020160009054906101000a900467ffffffffffffffff1667ffffffffffffffff1610611c8f57600f600083815260200190815260200160002060000160009054906101000a900473ffffffffffffffffffffffffffffffffffffffff169050611c94565b600090505b919050565b6060611ca482612366565b506000600660008481526020019081526020016000208054611cc59061404a565b80601f0160208091040260200160405190810160405280929190818152602001828054611cf19061404a565b8015611d3e5780601f10611d1357610100808354040283529160200191611d3e565b820191906000526020600020905b815481529060010190602001808311611d2157829003601f168201915b505050505090506000611d4f612ce9565b90506000815103611d64578192505050611da7565b600082511115611d99578082604051602001611d81929190614aa4565b60405160208183030381529060405292505050611da7565b611da284612d00565b925050505b919050565b6000611db66118d7565b90506000633b9aca008284611dcb91906141b6565b611dd591906141b6565b905060405180606001604052808581526020018281526020013373ffffffffffffffffffffffffffffffffffffffff1681525060106000600a5481526020019081526020016000206000820151816000019081611e329190614ac8565b506020820151816001015560408201518160020160006101000a81548173ffffffffffffffffffffffffffffffffffffffff021916908373ffffffffffffffffffffffffffffffffffffffff160217905550905050600c600a549080600181540180825580915050600190039060005260206000200160009091909190915055600a6000815480929190611ec59061432a565b919050555050505050565b6040517f08c379a0000000000000000000000000000000000000000000000000000000008152600401611f0290614be6565b60405180910390fd5b611f13612445565b3373ffffffffffffffffffffffffffffffffffffffff16611f3382611c14565b73ffffffffffffffffffffffffffffffffffffffff1614611f89576040517f08c379a0000000000000000000000000000000000000000000000000000000008152600401611f80906140c7565b60405180910390fd5b6000600f6000838152602001908152602001600020905060006010600083600401548152602001908152602001600020604051806060016040529081600082018054611fd49061404a565b80601f01602080910402602001604051908101604052809291908181526020018280546120009061404a565b801561204d5780601f106120225761010080835404028352916020019161204d565b820191906000526020600020905b81548152906001019060200180831161203057829003601f168201915b50505050508152602001600182015481526020016002820160009054906101000a900473ffffffffffffffffffffffffffffffffffffffff1673ffffffffffffffffffffffffffffffffffffffff1673ffffffffffffffffffffffffffffffffffffffff1681525050905060008160200151610e10346120cd91906141b6565b6120d79190614227565b9050600e54426120e791906147e1565b818460020160009054906101000a900467ffffffffffffffff1667ffffffffffffffff1661211591906147e1565b10612155576040517f08c379a000000000000000000000000000000000000000000000000000000000815260040161214c90614c52565b60405180910390fd5b3373ffffffffffffffffffffffffffffffffffffffff167f381c82ace1dd48ccb61648426892270a1ceb48c6ae1f5ce2872683ec0dc0d58060095460405161219d9190613893565b60405180910390a2816040015173ffffffffffffffffffffffffffffffffffffffff166108fc349081150290604051600060405180830381858888f193505050501580156121ef573d6000803e3d6000fd5b50808360020160009054906101000a900467ffffffffffffffff1667ffffffffffffffff1661221e91906147e1565b8360020160006101000a81548167ffffffffffffffff021916908367ffffffffffffffff1602179055503483600301600082825461225c91906147e1565b9250508190555050505061226e612511565b50565b6000600560008473ffffffffffffffffffffffffffffffffffffffff1673ffffffffffffffffffffffffffffffffffffffff16815260200190815260200160002060008373ffffffffffffffffffffffffffffffffffffffff1673ffffffffffffffffffffffffffffffffffffffff16815260200190815260200160002060009054906101000a900460ff16905092915050565b6000634906490660e01b7bffffffffffffffffffffffffffffffffffffffffffffffffffffffff1916827bffffffffffffffffffffffffffffffffffffffffffffffffffffffff1916148061235f575061235e82612d69565b5b9050919050565b60008061237283612e4b565b9050600073ffffffffffffffffffffffffffffffffffffffff168173ffffffffffffffffffffffffffffffffffffffff16036123e557826040517f7e2732890000000000000000000000000000000000000000000000000000000081526004016123dc9190613893565b60405180910390fd5b80915050919050565b60006004600083815260200190815260200160002060009054906101000a900473ffffffffffffffffffffffffffffffffffffffff169050919050565b600033905090565b6124408383836001612e88565b505050565b600260075403612481576040517f3ee5aeb500000000000000000000000000000000000000000000000000000000815260040160405180910390fd5b6002600781905550565b600061249a600083600061251b565b9050600073ffffffffffffffffffffffffffffffffffffffff168173ffffffffffffffffffffffffffffffffffffffff160361250d57816040517f7e2732890000000000000000000000000000000000000000000000000000000081526004016125049190613893565b60405180910390fd5b5050565b6001600781905550565b60008061252784612e4b565b9050600073ffffffffffffffffffffffffffffffffffffffff168373ffffffffffffffffffffffffffffffffffffffff16146125695761256881848661304d565b5b600073ffffffffffffffffffffffffffffffffffffffff168173ffffffffffffffffffffffffffffffffffffffff16146125fa576125ab600085600080612e88565b6001600360008373ffffffffffffffffffffffffffffffffffffffff1673ffffffffffffffffffffffffffffffffffffffff168152602001908152602001600020600082825403925050819055505b600073ffffffffffffffffffffffffffffffffffffffff168573ffffffffffffffffffffffffffffffffffffffff161461267d576001600360008773ffffffffffffffffffffffffffffffffffffffff1673ffffffffffffffffffffffffffffffffffffffff168152602001908152602001600020600082825401925050819055505b846002600086815260200190815260200160002060006101000a81548173ffffffffffffffffffffffffffffffffffffffff021916908373ffffffffffffffffffffffffffffffffffffffff160217905550838573ffffffffffffffffffffffffffffffffffffffff168273ffffffffffffffffffffffffffffffffffffffff167fddf252ad1be2c89b69c2b068fc378daa952ba7f163c4a11628f55a4df523b3ef60405160405180910390a4809150509392505050565b600073ffffffffffffffffffffffffffffffffffffffff168273ffffffffffffffffffffffffffffffffffffffff16036127a75760006040517f64a0ae9200000000000000000000000000000000000000000000000000000000815260040161279e919061376c565b60405180910390fd5b60006127b58383600061251b565b9050600073ffffffffffffffffffffffffffffffffffffffff168173ffffffffffffffffffffffffffffffffffffffff16146128295760006040517f73c6ac6e000000000000000000000000000000000000000000000000000000008152600401612820919061376c565b60405180910390fd5b505050565b8060066000848152602001908152602001600020908161284e9190614ac8565b507ff8e1a15aba9398e019f0b49df1a4fde98ee17ae345cb5f6b5e2c27f5033e8ce78260405161287e9190613893565b60405180910390a15050565b600061289582611c14565b90506000601160008373ffffffffffffffffffffffffffffffffffffffff1673ffffffffffffffffffffffffffffffffffffffff1681526020019081526020016000209050600080600090505b828054905081101561292d5784838281548110612902576129016142fb565b5b90600052602060002001540361291a5780915061292d565b80806129259061432a565b9150506128e2565b506001828054905061293f9190614116565b8110156129965781600183805490506129589190614116565b81548110612969576129686142fb565b5b9060005260206000200154828281548110612987576129866142fb565b5b90600052602060002001819055505b818054806129a7576129a6614a39565b5b6001900381819060005260206000200160009055905550505050565b600073ffffffffffffffffffffffffffffffffffffffff168273ffffffffffffffffffffffffffffffffffffffff1603612a3457816040517f5b08ba18000000000000000000000000000000000000000000000000000000008152600401612a2b919061376c565b60405180910390fd5b80600560008573ffffffffffffffffffffffffffffffffffffffff1673ffffffffffffffffffffffffffffffffffffffff16815260200190815260200160002060008473ffffffffffffffffffffffffffffffffffffffff1673ffffffffffffffffffffffffffffffffffffffff16815260200190815260200160002060006101000a81548160ff0219169083151502179055508173ffffffffffffffffffffffffffffffffffffffff168373ffffffffffffffffffffffffffffffffffffffff167f17307eab39ab6107e8899845ad3d59bd9653f200f220920489ca2b5937696c3183604051612b2591906135fb565b60405180910390a3505050565b60008373ffffffffffffffffffffffffffffffffffffffff163b1115612ce3578273ffffffffffffffffffffffffffffffffffffffff1663150b7a02612b7661242b565b8685856040518563ffffffff1660e01b8152600401612b989493929190614cc7565b6020604051808303816000875af1925050508015612bd457506040513d601f19601f82011682018060405250810190612bd19190614d28565b60015b612c58573d8060008114612c04576040519150601f19603f3d011682016040523d82523d6000602084013e612c09565b606091505b506000815103612c5057836040517f64a0ae92000000000000000000000000000000000000000000000000000000008152600401612c47919061376c565b60405180910390fd5b805181602001fd5b63150b7a0260e01b7bffffffffffffffffffffffffffffffffffffffffffffffffffffffff1916817bffffffffffffffffffffffffffffffffffffffffffffffffffffffff191614612ce157836040517f64a0ae92000000000000000000000000000000000000000000000000000000008152600401612cd8919061376c565b60405180910390fd5b505b50505050565b606060405180602001604052806000815250905090565b6060612d0b82612366565b506000612d16612ce9565b90506000815111612d365760405180602001604052806000815250612d61565b80612d4084613111565b604051602001612d51929190614aa4565b6040516020818303038152906040525b915050919050565b60007f80ac58cd000000000000000000000000000000000000000000000000000000007bffffffffffffffffffffffffffffffffffffffffffffffffffffffff1916827bffffffffffffffffffffffffffffffffffffffffffffffffffffffff19161480612e3457507f5b5e139f000000000000000000000000000000000000000000000000000000007bffffffffffffffffffffffffffffffffffffffffffffffffffffffff1916827bffffffffffffffffffffffffffffffffffffffffffffffffffffffff1916145b80612e445750612e43826131df565b5b9050919050565b60006002600083815260200190815260200160002060009054906101000a900473ffffffffffffffffffffffffffffffffffffffff169050919050565b8080612ec15750600073ffffffffffffffffffffffffffffffffffffffff168273ffffffffffffffffffffffffffffffffffffffff1614155b15612ff5576000612ed184612366565b9050600073ffffffffffffffffffffffffffffffffffffffff168373ffffffffffffffffffffffffffffffffffffffff1614158015612f3c57508273ffffffffffffffffffffffffffffffffffffffff168173ffffffffffffffffffffffffffffffffffffffff1614155b8015612f4f5750612f4d8184612271565b155b15612f9157826040517fa9fbf51f000000000000000000000000000000000000000000000000000000008152600401612f88919061376c565b60405180910390fd5b8115612ff357838573ffffffffffffffffffffffffffffffffffffffff168273ffffffffffffffffffffffffffffffffffffffff167f8c5be1e5ebec7d5bd14f71427d1e84f3dd0314c0f7b2291e5b200ac8c7c3b92560405160405180910390a45b505b836004600085815260200190815260200160002060006101000a81548173ffffffffffffffffffffffffffffffffffffffff021916908373ffffffffffffffffffffffffffffffffffffffff16021790555050505050565b613058838383613249565b61310c57600073ffffffffffffffffffffffffffffffffffffffff168373ffffffffffffffffffffffffffffffffffffffff16036130cd57806040517f7e2732890000000000000000000000000000000000000000000000000000000081526004016130c49190613893565b60405180910390fd5b81816040517f177e802f000000000000000000000000000000000000000000000000000000008152600401613103929190614d55565b60405180910390fd5b505050565b6060600060016131208461330a565b01905060008167ffffffffffffffff81111561313f5761313e613cb1565b5b6040519080825280601f01601f1916602001820160405280156131715781602001600182028036833780820191505090505b509050600082602001820190505b6001156131d4578080600190039150507f3031323334353637383961626364656600000000000000000000000000000000600a86061a8153600a85816131c8576131c76141f8565b5b0494506000850361317f575b819350505050919050565b60007f01ffc9a7000000000000000000000000000000000000000000000000000000007bffffffffffffffffffffffffffffffffffffffffffffffffffffffff1916827bffffffffffffffffffffffffffffffffffffffffffffffffffffffff1916149050919050565b60008073ffffffffffffffffffffffffffffffffffffffff168373ffffffffffffffffffffffffffffffffffffffff161415801561330157508273ffffffffffffffffffffffffffffffffffffffff168473ffffffffffffffffffffffffffffffffffffffff1614806132c257506132c18484612271565b5b8061330057508273ffffffffffffffffffffffffffffffffffffffff166132e8836123ee565b73ffffffffffffffffffffffffffffffffffffffff16145b5b90509392505050565b600080600090507a184f03e93ff9f4daa797ed6e38ed64bf6a1f0100000000000000008310613368577a184f03e93ff9f4daa797ed6e38ed64bf6a1f010000000000000000838161335e5761335d6141f8565b5b0492506040810190505b6d04ee2d6d415b85acef810000000083106133a5576d04ee2d6d415b85acef8100000000838161339b5761339a6141f8565b5b0492506020810190505b662386f26fc1000083106133d457662386f26fc1000083816133ca576133c96141f8565b5b0492506010810190505b6305f5e10083106133fd576305f5e10083816133f3576133f26141f8565b5b0492506008810190505b6127108310613422576127108381613418576134176141f8565b5b0492506004810190505b60648310613445576064838161343b5761343a6141f8565b5b0492506002810190505b600a8310613454576001810190505b80915050919050565b6040518060c00160405280600073ffffffffffffffffffffffffffffffffffffffff16815260200160608152602001600067ffffffffffffffff1681526020016000815260200160008152602001600081525090565b60405180606001604052806060815260200160008152602001600073ffffffffffffffffffffffffffffffffffffffff1681525090565b5080546134f69061404a565b6000825580601f106135085750613527565b601f016020900490600052602060002090810190613526919061352a565b5b50565b5b8082111561354357600081600090555060010161352b565b5090565b6000604051905090565b600080fd5b600080fd5b60007fffffffff0000000000000000000000000000000000000000000000000000000082169050919050565b6135908161355b565b811461359b57600080fd5b50565b6000813590506135ad81613587565b92915050565b6000602082840312156135c9576135c8613551565b5b60006135d78482850161359e565b91505092915050565b60008115159050919050565b6135f5816135e0565b82525050565b600060208201905061361060008301846135ec565b92915050565b600081519050919050565b600082825260208201905092915050565b60005b83811015613650578082015181840152602081019050613635565b60008484015250505050565b6000601f19601f8301169050919050565b600061367882613616565b6136828185613621565b9350613692818560208601613632565b61369b8161365c565b840191505092915050565b600060208201905081810360008301526136c0818461366d565b905092915050565b6000819050919050565b6136db816136c8565b81146136e657600080fd5b50565b6000813590506136f8816136d2565b92915050565b60006020828403121561371457613713613551565b5b6000613722848285016136e9565b91505092915050565b600073ffffffffffffffffffffffffffffffffffffffff82169050919050565b60006137568261372b565b9050919050565b6137668161374b565b82525050565b6000602082019050613781600083018461375d565b92915050565b6137908161374b565b811461379b57600080fd5b50565b6000813590506137ad81613787565b92915050565b600080604083850312156137ca576137c9613551565b5b60006137d88582860161379e565b92505060206137e9858286016136e9565b9150509250929050565b6137fc816136c8565b82525050565b6000606082019050818103600083015261381c818661366d565b905061382b60208301856137f3565b613838604083018461375d565b949350505050565b60008060006060848603121561385957613858613551565b5b60006138678682870161379e565b93505060206138788682870161379e565b9250506040613889868287016136e9565b9150509250925092565b60006020820190506138a860008301846137f3565b92915050565b600081519050919050565b600082825260208201905092915050565b6000819050602082019050919050565b6138e38161374b565b82525050565b600082825260208201905092915050565b600061390582613616565b61390f81856138e9565b935061391f818560208601613632565b6139288161365c565b840191505092915050565b600067ffffffffffffffff82169050919050565b61395081613933565b82525050565b61395f816136c8565b82525050565b600060c08301600083015161397d60008601826138da565b506020830151848203602086015261399582826138fa565b91505060408301516139aa6040860182613947565b5060608301516139bd6060860182613956565b5060808301516139d06080860182613956565b5060a08301516139e360a0860182613956565b508091505092915050565b60006139fa8383613965565b905092915050565b6000602082019050919050565b6000613a1a826138ae565b613a2481856138b9565b935083602082028501613a36856138ca565b8060005b85811015613a725784840389528151613a5385826139ee565b9450613a5e83613a02565b925060208a01995050600181019050613a3a565b50829750879550505050505092915050565b60006020820190508181036000830152613a9e8184613a0f565b905092915050565b600081519050919050565b600082825260208201905092915050565b6000819050602082019050919050565b60006060830160008301518482036000860152613aef82826138fa565b9150506020830151613b046020860182613956565b506040830151613b1760408601826138da565b508091505092915050565b6000613b2e8383613ad2565b905092915050565b6000602082019050919050565b6000613b4e82613aa6565b613b588185613ab1565b935083602082028501613b6a85613ac2565b8060005b85811015613ba65784840389528151613b878582613b22565b9450613b9283613b36565b925060208a01995050600181019050613b6e565b50829750879550505050505092915050565b60006020820190508181036000830152613bd28184613b43565b905092915050565b600060208284031215613bf057613bef613551565b5b6000613bfe8482850161379e565b91505092915050565b6000819050919050565b613c1a81613c07565b82525050565b6000602082019050613c356000830184613c11565b92915050565b613c44816135e0565b8114613c4f57600080fd5b50565b600081359050613c6181613c3b565b92915050565b60008060408385031215613c7e57613c7d613551565b5b6000613c8c8582860161379e565b9250506020613c9d85828601613c52565b9150509250929050565b600080fd5b600080fd5b7f4e487b7100000000000000000000000000000000000000000000000000000000600052604160045260246000fd5b613ce98261365c565b810181811067ffffffffffffffff82111715613d0857613d07613cb1565b5b80604052505050565b6000613d1b613547565b9050613d278282613ce0565b919050565b600067ffffffffffffffff821115613d4757613d46613cb1565b5b613d508261365c565b9050602081019050919050565b82818337600083830152505050565b6000613d7f613d7a84613d2c565b613d11565b905082815260208101848484011115613d9b57613d9a613cac565b5b613da6848285613d5d565b509392505050565b600082601f830112613dc357613dc2613ca7565b5b8135613dd3848260208601613d6c565b91505092915050565b60008060008060808587031215613df657613df5613551565b5b6000613e048782880161379e565b9450506020613e158782880161379e565b9350506040613e26878288016136e9565b925050606085013567ffffffffffffffff811115613e4757613e46613556565b5b613e5387828801613dae565b91505092959194509250565b600067ffffffffffffffff821115613e7a57613e79613cb1565b5b613e838261365c565b9050602081019050919050565b6000613ea3613e9e84613e5f565b613d11565b905082815260208101848484011115613ebf57613ebe613cac565b5b613eca848285613d5d565b509392505050565b600082601f830112613ee757613ee6613ca7565b5b8135613ef7848260208601613e90565b91505092915050565b60008060408385031215613f1757613f16613551565b5b600083013567ffffffffffffffff811115613f3557613f34613556565b5b613f4185828601613ed2565b9250506020613f52858286016136e9565b9150509250929050565b613f6581613933565b8114613f7057600080fd5b50565b600081359050613f8281613f5c565b92915050565b600080600060608486031215613fa157613fa0613551565b5b6000613faf868287016136e9565b9350506020613fc08682870161379e565b9250506040613fd186828701613f73565b9150509250925092565b60008060408385031215613ff257613ff1613551565b5b60006140008582860161379e565b92505060206140118582860161379e565b9150509250929050565b7f4e487b7100000000000000000000000000000000000000000000000000000000600052602260045260246000fd5b6000600282049050600182168061406257607f821691505b6020821081036140755761407461401b565b5b50919050565b7f43616c6c6572206973206e6f74206f776e657200000000000000000000000000600082015250565b60006140b1601383613621565b91506140bc8261407b565b602082019050919050565b600060208201905081810360008301526140e0816140a4565b9050919050565b7f4e487b7100000000000000000000000000000000000000000000000000000000600052601160045260246000fd5b6000614121826136c8565b915061412c836136c8565b9250828203905081811115614144576141436140e7565b5b92915050565b7f52656e74616c2068617320616c72656164792065787069726564000000000000600082015250565b6000614180601a83613621565b915061418b8261414a565b602082019050919050565b600060208201905081810360008301526141af81614173565b9050919050565b60006141c1826136c8565b91506141cc836136c8565b92508282026141da816136c8565b915082820484148315176141f1576141f06140e7565b5b5092915050565b7f4e487b7100000000000000000000000000000000000000000000000000000000600052601260045260246000fd5b6000614232826136c8565b915061423d836136c8565b92508261424d5761424c6141f8565b5b828204905092915050565b7f496e73756666696369656e7420636f6e74726163742062616c616e6365000000600082015250565b600061428e601d83613621565b915061429982614258565b602082019050919050565b600060208201905081810360008301526142bd81614281565b9050919050565b60006060820190506142d9600083018661375d565b6142e660208301856137f3565b6142f3604083018461375d565b949350505050565b7f4e487b7100000000000000000000000000000000000000000000000000000000600052603260045260246000fd5b6000614335826136c8565b91507fffffffffffffffffffffffffffffffffffffffffffffffffffffffffffffffff8203614367576143666140e7565b5b600182019050919050565b7f596f75206861766520616c72656164792072656e7465642074686973204e4654600082015250565b60006143a8602083613621565b91506143b382614372565b602082019050919050565b600060208201905081810360008301526143d78161439b565b9050919050565b7f417373697374616e742074656d706c617465206e6f7420666f756e6400000000600082015250565b6000614414601c83613621565b915061441f826143de565b602082019050919050565b6000602082019050818103600083015261444381614407565b9050919050565b7f4d696e696d756d2072656e74616c2074696d65206e6f74206d65740000000000600082015250565b6000614480601b83613621565b915061448b8261444a565b602082019050919050565b600060208201905081810360008301526144af81614473565b9050919050565b7f4578636565646564206d6178696d756d2072656e74616c2074696d6500000000600082015250565b60006144ec601c83613621565b91506144f7826144b6565b602082019050919050565b6000602082019050818103600083015261451b816144df565b9050919050565b6000815490506145318161404a565b9050919050565b60008190508160005260206000209050919050565b60008190508160005260206000209050919050565b60006020601f8301049050919050565b600082821b905092915050565b6000600883026145af7fffffffffffffffffffffffffffffffffffffffffffffffffffffffffffffffff82614572565b6145b98683614572565b95508019841693508086168417925050509392505050565b6000819050919050565b60006145f66145f16145ec846136c8565b6145d1565b6136c8565b9050919050565b6000819050919050565b614610836145db565b61462461461c826145fd565b84845461457f565b825550505050565b600090565b61463961462c565b614644818484614607565b505050565b5b818110156146685761465d600082614631565b60018101905061464a565b5050565b601f8211156146ad5761467e81614538565b61468784614562565b81016020851015614696578190505b6146aa6146a285614562565b830182614649565b50505b505050565b600082821c905092915050565b60006146d0600019846008026146b2565b1980831691505092915050565b60006146e983836146bf565b9150826002028217905092915050565b8181036147075750506147df565b61471082614522565b67ffffffffffffffff81111561472957614728613cb1565b5b614733825461404a565b61473e82828561466c565b6000601f83116001811461476d576000841561475b578287015490505b61476585826146dd565b8655506147d8565b601f19841661477b8761454d565b965061478686614538565b60005b828110156147ae57848901548255600182019150600185019450602081019050614789565b868310156147cb57848901546147c7601f8916826146bf565b8355505b6001600288020188555050505b5050505050505b565b60006147ec826136c8565b91506147f7836136c8565b925082820190508082111561480f5761480e6140e7565b5b92915050565b61481e81613933565b82525050565b60006020820190506148396000830184614815565b92915050565b600069ffffffffffffffffffff82169050919050565b61485e8161483f565b811461486957600080fd5b50565b60008151905061487b81614855565b92915050565b61488a81613c07565b811461489557600080fd5b50565b6000815190506148a781614881565b92915050565b6000815190506148bc816136d2565b92915050565b600080600080600060a086880312156148de576148dd613551565b5b60006148ec8882890161486c565b95505060206148fd88828901614898565b945050604061490e888289016148ad565b935050606061491f888289016148ad565b92505060806149308882890161486c565b9150509295509295909350565b7f436861696e6c696e6b2070726963652066656564206e6f7420617661696c616260008201527f6c65000000000000000000000000000000000000000000000000000000000000602082015250565b6000614999602283613621565b91506149a48261493d565b604082019050919050565b600060208201905081810360008301526149c88161498c565b9050919050565b60006149da82613c07565b91506149e583613c07565b9250826149f5576149f46141f8565b5b600160000383147f800000000000000000000000000000000000000000000000000000000000000083141615614a2e57614a2d6140e7565b5b828205905092915050565b7f4e487b7100000000000000000000000000000000000000000000000000000000600052603160045260246000fd5b600081905092915050565b6000614a7e82613616565b614a888185614a68565b9350614a98818560208601613632565b80840191505092915050565b6000614ab08285614a73565b9150614abc8284614a73565b91508190509392505050565b614ad182613616565b67ffffffffffffffff811115614aea57614ae9613cb1565b5b614af4825461404a565b614aff82828561466c565b600060209050601f831160018114614b325760008415614b20578287015190505b614b2a85826146dd565b865550614b92565b601f198416614b4086614538565b60005b82811015614b6857848901518255600182019150602085019450602081019050614b43565b86831015614b855784890151614b81601f8916826146bf565b8355505b6001600288020188555050505b505050505050565b7f63616e6e6f74206368616e676520757365720000000000000000000000000000600082015250565b6000614bd0601283613621565b9150614bdb82614b9a565b602082019050919050565b60006020820190508181036000830152614bff81614bc3565b9050919050565b7f4d61782072656e74616c2074696d652065786365656465640000000000000000600082015250565b6000614c3c601883613621565b9150614c4782614c06565b602082019050919050565b60006020820190508181036000830152614c6b81614c2f565b9050919050565b600081519050919050565b600082825260208201905092915050565b6000614c9982614c72565b614ca38185614c7d565b9350614cb3818560208601613632565b614cbc8161365c565b840191505092915050565b6000608082019050614cdc600083018761375d565b614ce9602083018661375d565b614cf660408301856137f3565b8181036060830152614d088184614c8e565b905095945050505050565b600081519050614d2281613587565b92915050565b600060208284031215614d3e57614d3d613551565b5b6000614d4c84828501614d13565b91505092915050565b6000604082019050614d6a600083018561375d565b614d7760208301846137f3565b939250505056fea26469706673582212208c6b3871e37d2e1da7790f9d6815068403dd1dc5dc6f1563ee35ce79013018da64736f6c63430008140033",
  "linkReferences": {},
  "deployedLinkReferences": {}
}