{
  "_format": "hh-sol-artifact-1",
  "contractName": "GPTStore",
  "sourceName": "contracts/GPTStore.sol",
  "abi": [
    {
      "inputs": [],
      "stateMutability": "nonpayable",
      "type": "constructor"
    },
    {
      "inputs": [
        {
          "internalType": "address",
          "name": "sender",
          "type": "address"
        },
        {
          "internalType": "uint256",
          "name": "tokenId",
          "type": "uint256"
        },
        {
          "internalType": "address",
          "name": "owner",
          "type": "address"
        }
      ],
      "name": "ERC721IncorrectOwner",
      "type": "error"
    },
    {
      "inputs": [
        {
          "internalType": "address",
          "name": "operator",
          "type": "address"
        },
        {
          "internalType": "uint256",
          "name": "tokenId",
          "type": "uint256"
        }
      ],
      "name": "ERC721InsufficientApproval",
      "type": "error"
    },
    {
      "inputs": [
        {
          "internalType": "address",
          "name": "approver",
          "type": "address"
        }
      ],
      "name": "ERC721InvalidApprover",
      "type": "error"
    },
    {
      "inputs": [
        {
          "internalType": "address",
          "name": "operator",
          "type": "address"
        }
      ],
      "name": "ERC721InvalidOperator",
      "type": "error"
    },
    {
      "inputs": [
        {
          "internalType": "address",
          "name": "owner",
          "type": "address"
        }
      ],
      "name": "ERC721InvalidOwner",
      "type": "error"
    },
    {
      "inputs": [
        {
          "internalType": "address",
          "name": "receiver",
          "type": "address"
        }
      ],
      "name": "ERC721InvalidReceiver",
      "type": "error"
    },
    {
      "inputs": [
        {
          "internalType": "address",
          "name": "sender",
          "type": "address"
        }
      ],
      "name": "ERC721InvalidSender",
      "type": "error"
    },
    {
      "inputs": [
        {
          "internalType": "uint256",
          "name": "tokenId",
          "type": "uint256"
        }
      ],
      "name": "ERC721NonexistentToken",
      "type": "error"
    },
    {
      "inputs": [],
      "name": "ReentrancyGuardReentrantCall",
      "type": "error"
    },
    {
      "anonymous": false,
      "inputs": [
        {
          "indexed": true,
          "internalType": "address",
          "name": "owner",
          "type": "address"
        },
        {
          "indexed": true,
          "internalType": "address",
          "name": "approved",
          "type": "address"
        },
        {
          "indexed": true,
          "internalType": "uint256",
          "name": "tokenId",
          "type": "uint256"
        }
      ],
      "name": "Approval",
      "type": "event"
    },
    {
      "anonymous": false,
      "inputs": [
        {
          "indexed": true,
          "internalType": "address",
          "name": "owner",
          "type": "address"
        },
        {
          "indexed": true,
          "internalType": "address",
          "name": "operator",
          "type": "address"
        },
        {
          "indexed": false,
          "internalType": "bool",
          "name": "approved",
          "type": "bool"
        }
      ],
      "name": "ApprovalForAll",
      "type": "event"
    },
    {
      "anonymous": false,
      "inputs": [
        {
          "indexed": false,
          "internalType": "uint256",
          "name": "_fromTokenId",
          "type": "uint256"
        },
        {
          "indexed": false,
          "internalType": "uint256",
          "name": "_toTokenId",
          "type": "uint256"
        }
      ],
      "name": "BatchMetadataUpdate",
      "type": "event"
    },
    {
      "anonymous": false,
      "inputs": [
        {
          "indexed": false,
          "internalType": "uint256",
          "name": "_tokenId",
          "type": "uint256"
        }
      ],
      "name": "MetadataUpdate",
      "type": "event"
    },
    {
      "anonymous": false,
      "inputs": [
        {
          "indexed": false,
          "internalType": "uint256",
          "name": "nftId",
          "type": "uint256"
        },
        {
          "indexed": true,
          "internalType": "address",
          "name": "user",
          "type": "address"
        }
      ],
      "name": "Rent",
      "type": "event"
    },
    {
      "anonymous": false,
      "inputs": [
        {
          "indexed": true,
          "internalType": "address",
          "name": "from",
          "type": "address"
        },
        {
          "indexed": true,
          "internalType": "address",
          "name": "to",
          "type": "address"
        },
        {
          "indexed": true,
          "internalType": "uint256",
          "name": "tokenId",
          "type": "uint256"
        }
      ],
      "name": "Transfer",
      "type": "event"
    },
    {
      "anonymous": false,
      "inputs": [
        {
          "indexed": true,
          "internalType": "uint256",
          "name": "tokenId",
          "type": "uint256"
        },
        {
          "indexed": true,
          "internalType": "address",
          "name": "user",
          "type": "address"
        },
        {
          "indexed": false,
          "internalType": "uint64",
          "name": "expires",
          "type": "uint64"
        }
      ],
      "name": "UpdateUser",
      "type": "event"
    },
    {
      "inputs": [
        {
          "internalType": "address",
          "name": "to",
          "type": "address"
        },
        {
          "internalType": "uint256",
          "name": "tokenId",
          "type": "uint256"
        }
      ],
      "name": "approve",
      "outputs": [],
      "stateMutability": "nonpayable",
      "type": "function"
    },
    {
      "inputs": [
        {
          "internalType": "uint256",
          "name": "",
          "type": "uint256"
        }
      ],
      "name": "assistantsGroups",
      "outputs": [
        {
          "internalType": "string",
          "name": "assistantID",
          "type": "string"
        },
        {
          "internalType": "uint256",
          "name": "pricePerHour",
          "type": "uint256"
        },
        {
          "internalType": "address",
          "name": "owner",
          "type": "address"
        }
      ],
      "stateMutability": "view",
      "type": "function"
    },
    {
      "inputs": [
        {
          "internalType": "address",
          "name": "owner",
          "type": "address"
        }
      ],
      "name": "balanceOf",
      "outputs": [
        {
          "internalType": "uint256",
          "name": "",
          "type": "uint256"
        }
      ],
      "stateMutability": "view",
      "type": "function"
    },
    {
      "inputs": [],
      "name": "cleanUpOldRentals",
      "outputs": [],
      "stateMutability": "nonpayable",
      "type": "function"
    },
    {
      "inputs": [
        {
          "internalType": "uint256",
          "name": "tokenId",
          "type": "uint256"
        }
      ],
      "name": "extendRental",
      "outputs": [],
      "stateMutability": "payable",
      "type": "function"
    },
    {
      "inputs": [],
      "name": "getAllAssistantDetails",
      "outputs": [
        {
          "components": [
            {
              "internalType": "string",
              "name": "assistantID",
              "type": "string"
            },
            {
              "internalType": "uint256",
              "name": "pricePerHour",
              "type": "uint256"
            },
            {
              "internalType": "address",
              "name": "owner",
              "type": "address"
            }
          ],
          "internalType": "struct GPTStore.Assistant[]",
          "name": "",
          "type": "tuple[]"
        }
      ],
      "stateMutability": "view",
      "type": "function"
    },
    {
      "inputs": [
        {
          "internalType": "uint256",
          "name": "tokenId",
          "type": "uint256"
        }
      ],
      "name": "getApproved",
      "outputs": [
        {
          "internalType": "address",
          "name": "",
          "type": "address"
        }
      ],
      "stateMutability": "view",
      "type": "function"
    },
    {
      "inputs": [],
      "name": "getUserRentedAssistants",
      "outputs": [
        {
          "components": [
            {
              "internalType": "address",
              "name": "user",
              "type": "address"
            },
            {
              "internalType": "uint64",
              "name": "expires",
              "type": "uint64"
            },
            {
              "internalType": "uint256",
              "name": "payment",
              "type": "uint256"
            },
            {
              "internalType": "uint256",
              "name": "assistantNo",
              "type": "uint256"
            }
          ],
          "internalType": "struct GPTStore.UserInfo[]",
          "name": "",
          "type": "tuple[]"
        }
      ],
      "stateMutability": "view",
      "type": "function"
    },
    {
      "inputs": [
        {
          "internalType": "address",
          "name": "owner",
          "type": "address"
        },
        {
          "internalType": "address",
          "name": "operator",
          "type": "address"
        }
      ],
      "name": "isApprovedForAll",
      "outputs": [
        {
          "internalType": "bool",
          "name": "",
          "type": "bool"
        }
      ],
      "stateMutability": "view",
      "type": "function"
    },
    {
      "inputs": [],
      "name": "maxRentalTime",
      "outputs": [
        {
          "internalType": "uint256",
          "name": "",
          "type": "uint256"
        }
      ],
      "stateMutability": "view",
      "type": "function"
    },
    {
      "inputs": [],
      "name": "minRentalTime",
      "outputs": [
        {
          "internalType": "uint256",
          "name": "",
          "type": "uint256"
        }
      ],
      "stateMutability": "view",
      "type": "function"
    },
    {
      "inputs": [],
      "name": "name",
      "outputs": [
        {
          "internalType": "string",
          "name": "",
          "type": "string"
        }
      ],
      "stateMutability": "view",
      "type": "function"
    },
    {
      "inputs": [
        {
          "internalType": "uint256",
          "name": "tokenId",
          "type": "uint256"
        }
      ],
      "name": "ownerOf",
      "outputs": [
        {
          "internalType": "address",
          "name": "",
          "type": "address"
        }
      ],
      "stateMutability": "view",
      "type": "function"
    },
    {
      "inputs": [
        {
          "internalType": "uint256",
          "name": "id",
          "type": "uint256"
        }
      ],
      "name": "removeTemplate",
      "outputs": [],
      "stateMutability": "nonpayable",
      "type": "function"
    },
    {
      "inputs": [
        {
          "internalType": "string",
          "name": "metadata",
          "type": "string"
        },
        {
          "internalType": "uint256",
          "name": "assistantNo",
          "type": "uint256"
        }
      ],
      "name": "rent",
      "outputs": [],
      "stateMutability": "payable",
      "type": "function"
    },
    {
      "inputs": [
        {
          "internalType": "address",
          "name": "from",
          "type": "address"
        },
        {
          "internalType": "address",
          "name": "to",
          "type": "address"
        },
        {
          "internalType": "uint256",
          "name": "tokenId",
          "type": "uint256"
        }
      ],
      "name": "safeTransferFrom",
      "outputs": [],
      "stateMutability": "nonpayable",
      "type": "function"
    },
    {
      "inputs": [
        {
          "internalType": "address",
          "name": "from",
          "type": "address"
        },
        {
          "internalType": "address",
          "name": "to",
          "type": "address"
        },
        {
          "internalType": "uint256",
          "name": "tokenId",
          "type": "uint256"
        },
        {
          "internalType": "bytes",
          "name": "data",
          "type": "bytes"
        }
      ],
      "name": "safeTransferFrom",
      "outputs": [],
      "stateMutability": "nonpayable",
      "type": "function"
    },
    {
      "inputs": [
        {
          "internalType": "address",
          "name": "operator",
          "type": "address"
        },
        {
          "internalType": "bool",
          "name": "approved",
          "type": "bool"
        }
      ],
      "name": "setApprovalForAll",
      "outputs": [],
      "stateMutability": "nonpayable",
      "type": "function"
    },
    {
      "inputs": [
        {
          "internalType": "string",
          "name": "assistantId",
          "type": "string"
        },
        {
          "internalType": "uint256",
          "name": "priceHour",
          "type": "uint256"
        }
      ],
      "name": "setAssistants",
      "outputs": [],
      "stateMutability": "nonpayable",
      "type": "function"
    },
    {
      "inputs": [
        {
          "internalType": "uint256",
          "name": "time",
          "type": "uint256"
        }
      ],
      "name": "setMaxRentalTime",
      "outputs": [],
      "stateMutability": "nonpayable",
      "type": "function"
    },
    {
      "inputs": [
        {
          "internalType": "uint256",
          "name": "time",
          "type": "uint256"
        }
      ],
      "name": "setMinRentalTime",
      "outputs": [],
      "stateMutability": "nonpayable",
      "type": "function"
    },
    {
      "inputs": [
        {
          "internalType": "uint256",
          "name": "",
          "type": "uint256"
        },
        {
          "internalType": "address",
          "name": "",
          "type": "address"
        },
        {
          "internalType": "uint64",
          "name": "",
          "type": "uint64"
        }
      ],
      "name": "setUser",
      "outputs": [],
      "stateMutability": "pure",
      "type": "function"
    },
    {
      "inputs": [
        {
          "internalType": "uint256",
          "name": "tokenId",
          "type": "uint256"
        }
      ],
      "name": "stopRental",
      "outputs": [],
      "stateMutability": "nonpayable",
      "type": "function"
    },
    {
      "inputs": [
        {
          "internalType": "bytes4",
          "name": "interfaceId",
          "type": "bytes4"
        }
      ],
      "name": "supportsInterface",
      "outputs": [
        {
          "internalType": "bool",
          "name": "",
          "type": "bool"
        }
      ],
      "stateMutability": "view",
      "type": "function"
    },
    {
      "inputs": [],
      "name": "symbol",
      "outputs": [
        {
          "internalType": "string",
          "name": "",
          "type": "string"
        }
      ],
      "stateMutability": "view",
      "type": "function"
    },
    {
      "inputs": [
        {
          "internalType": "uint256",
          "name": "tokenId",
          "type": "uint256"
        }
      ],
      "name": "tokenURI",
      "outputs": [
        {
          "internalType": "string",
          "name": "",
          "type": "string"
        }
      ],
      "stateMutability": "view",
      "type": "function"
    },
    {
      "inputs": [
        {
          "internalType": "address",
          "name": "from",
          "type": "address"
        },
        {
          "internalType": "address",
          "name": "to",
          "type": "address"
        },
        {
          "internalType": "uint256",
          "name": "tokenId",
          "type": "uint256"
        }
      ],
      "name": "transferFrom",
      "outputs": [],
      "stateMutability": "nonpayable",
      "type": "function"
    },
    {
      "inputs": [
        {
          "internalType": "uint256",
          "name": "tokenId",
          "type": "uint256"
        }
      ],
      "name": "userExpires",
      "outputs": [
        {
          "internalType": "uint256",
          "name": "",
          "type": "uint256"
        }
      ],
      "stateMutability": "view",
      "type": "function"
    },
    {
      "inputs": [
        {
          "internalType": "uint256",
          "name": "tokenId",
          "type": "uint256"
        }
      ],
      "name": "userOf",
      "outputs": [
        {
          "internalType": "address",
          "name": "",
          "type": "address"
        }
      ],
      "stateMutability": "view",
      "type": "function"
    }
  ],
  "bytecode": "0x608060405260016008556001600955610708600c5562278d00600d553480156200002857600080fd5b506040518060400160405280600881526020017f47505453746f72650000000000000000000000000000000000000000000000008152506040518060400160405280600381526020017f47505400000000000000000000000000000000000000000000000000000000008152508160009081620000a6919062000384565b508060019081620000b8919062000384565b505050600160078190555033600a60006101000a81548173ffffffffffffffffffffffffffffffffffffffff021916908373ffffffffffffffffffffffffffffffffffffffff1602179055506200046b565b600081519050919050565b7f4e487b7100000000000000000000000000000000000000000000000000000000600052604160045260246000fd5b7f4e487b7100000000000000000000000000000000000000000000000000000000600052602260045260246000fd5b600060028204905060018216806200018c57607f821691505b602082108103620001a257620001a162000144565b5b50919050565b60008190508160005260206000209050919050565b60006020601f8301049050919050565b600082821b905092915050565b6000600883026200020c7fffffffffffffffffffffffffffffffffffffffffffffffffffffffffffffffff82620001cd565b620002188683620001cd565b95508019841693508086168417925050509392505050565b6000819050919050565b6000819050919050565b6000620002656200025f620002598462000230565b6200023a565b62000230565b9050919050565b6000819050919050565b620002818362000244565b6200029962000290826200026c565b848454620001da565b825550505050565b600090565b620002b0620002a1565b620002bd81848462000276565b505050565b5b81811015620002e557620002d9600082620002a6565b600181019050620002c3565b5050565b601f8211156200033457620002fe81620001a8565b6200030984620001bd565b8101602085101562000319578190505b620003316200032885620001bd565b830182620002c2565b50505b505050565b600082821c905092915050565b6000620003596000198460080262000339565b1980831691505092915050565b600062000374838362000346565b9150826002028217905092915050565b6200038f826200010a565b67ffffffffffffffff811115620003ab57620003aa62000115565b5b620003b7825462000173565b620003c4828285620002e9565b600060209050601f831160018114620003fc5760008415620003e7578287015190505b620003f3858262000366565b86555062000463565b601f1984166200040c86620001a8565b60005b8281101562000436578489015182556001820191506020850194506020810190506200040f565b8683101562000456578489015162000452601f89168262000346565b8355505b6001600288020188555050505b505050505050565b614654806200047b6000396000f3fe6080604052600436106101c25760003560e01c806367c5d1b1116100f7578063b88d4fde11610095578063cc505cee11610064578063cc505cee14610657578063e030565e14610680578063e1eb3ea9146106a9578063e985e9c5146106c5576101c2565b8063b88d4fde1461058b578063c04d0ab7146105b4578063c2f1f14a146105dd578063c87b56dd1461061a576101c2565b80637dbed446116100d15780637dbed446146104e35780638fc88c48146104fa57806395d89b4114610537578063a22cb46514610562576101c2565b806367c5d1b114610452578063707c39521461047d57806370a08231146104a6576101c2565b806320f8a14d1161016457806342842e0e1161013e57806342842e0e14610396578063543d937c146103bf5780635ebbfd47146103ea5780636352211e14610415576101c2565b806320f8a14d1461030357806323b872dd146103425780632ce7a0171461036b576101c2565b8063095ea7b3116101a0578063095ea7b31461026c578063156ecc3d14610295578063166ce434146102be5780631da405ec146102e7576101c2565b806301ffc9a7146101c757806306fdde0314610204578063081812fc1461022f575b600080fd5b3480156101d357600080fd5b506101ee60048036038101906101e991906131db565b610702565b6040516101fb9190613223565b60405180910390f35b34801561021057600080fd5b5061021961077c565b60405161022691906132ce565b60405180910390f35b34801561023b57600080fd5b5061025660048036038101906102519190613326565b61080e565b6040516102639190613394565b60405180910390f35b34801561027857600080fd5b50610293600480360381019061028e91906133db565b61082a565b005b3480156102a157600080fd5b506102bc60048036038101906102b79190613326565b610840565b005b3480156102ca57600080fd5b506102e560048036038101906102e09190613326565b610b9c565b005b61030160048036038101906102fc9190613550565b610ba6565b005b34801561030f57600080fd5b5061032a60048036038101906103259190613326565b61107b565b604051610339939291906135bb565b60405180910390f35b34801561034e57600080fd5b50610369600480360381019061036491906135f9565b61114d565b005b34801561037757600080fd5b5061038061124f565b60405161038d919061364c565b60405180910390f35b3480156103a257600080fd5b506103bd60048036038101906103b891906135f9565b611255565b005b3480156103cb57600080fd5b506103d4611275565b6040516103e191906137ac565b60405180910390f35b3480156103f657600080fd5b506103ff611436565b60405161040c919061392a565b60405180910390f35b34801561042157600080fd5b5061043c60048036038101906104379190613326565b61160c565b6040516104499190613394565b60405180910390f35b34801561045e57600080fd5b5061046761161e565b604051610474919061364c565b60405180910390f35b34801561048957600080fd5b506104a4600480360381019061049f9190613326565b611624565b005b3480156104b257600080fd5b506104cd60048036038101906104c8919061394c565b61162e565b6040516104da919061364c565b60405180910390f35b3480156104ef57600080fd5b506104f86116e8565b005b34801561050657600080fd5b50610521600480360381019061051c9190613326565b61176a565b60405161052e919061364c565b60405180910390f35b34801561054357600080fd5b5061054c6117a8565b60405161055991906132ce565b60405180910390f35b34801561056e57600080fd5b50610589600480360381019061058491906139a5565b61183a565b005b34801561059757600080fd5b506105b260048036038101906105ad9190613a86565b611850565b005b3480156105c057600080fd5b506105db60048036038101906105d69190613326565b61186d565b005b3480156105e957600080fd5b5061060460048036038101906105ff9190613326565b6119b0565b6040516106119190613394565b60405180910390f35b34801561062657600080fd5b50610641600480360381019061063c9190613326565b611a35565b60405161064e91906132ce565b60405180910390f35b34801561066357600080fd5b5061067e60048036038101906106799190613550565b611b48565b005b34801561068c57600080fd5b506106a760048036038101906106a29190613b35565b611c3f565b005b6106c360048036038101906106be9190613326565b611c7a565b005b3480156106d157600080fd5b506106ec60048036038101906106e79190613b88565b611fe0565b6040516106f99190613223565b60405180910390f35b60007fad092b5c000000000000000000000000000000000000000000000000000000007bffffffffffffffffffffffffffffffffffffffffffffffffffffffff1916827bffffffffffffffffffffffffffffffffffffffffffffffffffffffff19161480610775575061077482612074565b5b9050919050565b60606000805461078b90613bf7565b80601f01602080910402602001604051908101604052809291908181526020018280546107b790613bf7565b80156108045780601f106107d957610100808354040283529160200191610804565b820191906000526020600020905b8154815290600101906020018083116107e757829003601f168201915b5050505050905090565b6000610819826120d5565b506108238261215d565b9050919050565b61083c828261083761219a565b6121a2565b5050565b6108486121b4565b3373ffffffffffffffffffffffffffffffffffffffff16610868826119b0565b73ffffffffffffffffffffffffffffffffffffffff16146108be576040517f08c379a00000000000000000000000000000000000000000000000000000000081526004016108b590613c74565b60405180910390fd5b6000600e600083815260200190815260200160002090506000600f60008360020154815260200190815260200160002060405180606001604052908160008201805461090990613bf7565b80601f016020809104026020016040519081016040528092919081815260200182805461093590613bf7565b80156109825780601f1061095757610100808354040283529160200191610982565b820191906000526020600020905b81548152906001019060200180831161096557829003601f168201915b50505050508152602001600182015481526020016002820160009054906101000a900473ffffffffffffffffffffffffffffffffffffffff1673ffffffffffffffffffffffffffffffffffffffff1673ffffffffffffffffffffffffffffffffffffffff168152505090506000603c428460000160149054906101000a900467ffffffffffffffff1667ffffffffffffffff16610a1f9190613cc3565b610a299190613cc3565b905060008111610a6e576040517f08c379a0000000000000000000000000000000000000000000000000000000008152600401610a6590613d43565b60405180910390fd5b3373ffffffffffffffffffffffffffffffffffffffff167f381c82ace1dd48ccb61648426892270a1ceb48c6ae1f5ce2872683ec0dc0d580600854604051610ab6919061364c565b60405180910390a26000610e10836020015183610ad39190613d63565b610add9190613dd4565b905080471015610b22576040517f08c379a0000000000000000000000000000000000000000000000000000000008152600401610b1990613e51565b60405180910390fd5b3373ffffffffffffffffffffffffffffffffffffffff166108fc829081150290604051600060405180830381858888f19350505050158015610b68573d6000803e3d6000fd5b5080846001016000828254610b7d9190613cc3565b92505081905550610b8d856121fa565b50505050610b99612280565b50565b80600d8190555050565b610bae6121b4565b60116000600854815260200190815260200160002060003373ffffffffffffffffffffffffffffffffffffffff1673ffffffffffffffffffffffffffffffffffffffff16815260200190815260200160002060009054906101000a900460ff1615610c4e576040517f08c379a0000000000000000000000000000000000000000000000000000000008152600401610c4590613ebd565b60405180910390fd5b6000600f60008381526020019081526020016000206001015411610ca7576040517f08c379a0000000000000000000000000000000000000000000000000000000008152600401610c9e90613f29565b60405180910390fd5b610caf6116e8565b6000600f600083815260200190815260200160002060010154610e1034610cd69190613d63565b610ce09190613dd4565b9050600c54811015610d27576040517f08c379a0000000000000000000000000000000000000000000000000000000008152600401610d1e90613f95565b60405180910390fd5b600d54811115610d6c576040517f08c379a0000000000000000000000000000000000000000000000000000000008152600401610d6390614001565b60405180910390fd5b3373ffffffffffffffffffffffffffffffffffffffff167f381c82ace1dd48ccb61648426892270a1ceb48c6ae1f5ce2872683ec0dc0d580600854604051610db4919061364c565b60405180910390a2600f600083815260200190815260200160002060020160009054906101000a900473ffffffffffffffffffffffffffffffffffffffff1673ffffffffffffffffffffffffffffffffffffffff166108fc349081150290604051600060405180830381858888f19350505050158015610e38573d6000803e3d6000fd5b50610e453360085461228a565b610e5160085484612383565b6000600e600060085481526020019081526020016000209050338160000160006101000a81548173ffffffffffffffffffffffffffffffffffffffff021916908373ffffffffffffffffffffffffffffffffffffffff1602179055508142610eb99190614021565b8160000160146101000a81548167ffffffffffffffff021916908367ffffffffffffffff1602179055508281600201819055503481600101819055508060000160009054906101000a900473ffffffffffffffffffffffffffffffffffffffff1673ffffffffffffffffffffffffffffffffffffffff166008547f4e06b4e7000e659094299b3533b47b6aa8ad048e95e872d23d1f4ee55af89cfe8360000160149054906101000a900467ffffffffffffffff16604051610f7a9190614064565b60405180910390a3601060003373ffffffffffffffffffffffffffffffffffffffff1673ffffffffffffffffffffffffffffffffffffffff168152602001908152602001600020600854908060018154018082558091505060019003906000526020600020016000909190919091505560086000815480929190610ffd9061407f565b9190505550600160116000600854815260200190815260200160002060003373ffffffffffffffffffffffffffffffffffffffff1673ffffffffffffffffffffffffffffffffffffffff16815260200190815260200160002060006101000a81548160ff0219169083151502179055505050611077612280565b5050565b600f60205280600052604060002060009150905080600001805461109e90613bf7565b80601f01602080910402602001604051908101604052809291908181526020018280546110ca90613bf7565b80156111175780601f106110ec57610100808354040283529160200191611117565b820191906000526020600020905b8154815290600101906020018083116110fa57829003601f168201915b5050505050908060010154908060020160009054906101000a900473ffffffffffffffffffffffffffffffffffffffff16905083565b600073ffffffffffffffffffffffffffffffffffffffff168273ffffffffffffffffffffffffffffffffffffffff16036111bf5760006040517f64a0ae920000000000000000000000000000000000000000000000000000000081526004016111b69190613394565b60405180910390fd5b60006111d383836111ce61219a565b6123df565b90508373ffffffffffffffffffffffffffffffffffffffff168173ffffffffffffffffffffffffffffffffffffffff1614611249578382826040517f64283d7b000000000000000000000000000000000000000000000000000000008152600401611240939291906140c7565b60405180910390fd5b50505050565b600c5481565b61127083838360405180602001604052806000815250611850565b505050565b60606000601060003373ffffffffffffffffffffffffffffffffffffffff1673ffffffffffffffffffffffffffffffffffffffff16815260200190815260200160002090506000818054905067ffffffffffffffff8111156112da576112d9613425565b5b60405190808252806020026020018201604052801561131357816020015b611300613093565b8152602001906001900390816112f85790505b50905060005b828054905081101561142d57600e600084838154811061133c5761133b6140fe565b5b906000526020600020015481526020019081526020016000206040518060800160405290816000820160009054906101000a900473ffffffffffffffffffffffffffffffffffffffff1673ffffffffffffffffffffffffffffffffffffffff1673ffffffffffffffffffffffffffffffffffffffff1681526020016000820160149054906101000a900467ffffffffffffffff1667ffffffffffffffff1667ffffffffffffffff1681526020016001820154815260200160028201548152505082828151811061140f5761140e6140fe565b5b602002602001018190525080806114259061407f565b915050611319565b50809250505090565b60606000600b8054905067ffffffffffffffff81111561145957611458613425565b5b60405190808252806020026020018201604052801561149257816020015b61147f6130db565b8152602001906001900390816114775790505b50905060005b600b8054905081101561160457600f6000600b83815481106114bd576114bc6140fe565b5b906000526020600020015481526020019081526020016000206040518060600160405290816000820180546114f190613bf7565b80601f016020809104026020016040519081016040528092919081815260200182805461151d90613bf7565b801561156a5780601f1061153f5761010080835404028352916020019161156a565b820191906000526020600020905b81548152906001019060200180831161154d57829003601f168201915b50505050508152602001600182015481526020016002820160009054906101000a900473ffffffffffffffffffffffffffffffffffffffff1673ffffffffffffffffffffffffffffffffffffffff1673ffffffffffffffffffffffffffffffffffffffff16815250508282815181106115e6576115e56140fe565b5b602002602001018190525080806115fc9061407f565b915050611498565b508091505090565b6000611617826120d5565b9050919050565b600d5481565b80600c8190555050565b60008073ffffffffffffffffffffffffffffffffffffffff168273ffffffffffffffffffffffffffffffffffffffff16036116a15760006040517f89c62b640000000000000000000000000000000000000000000000000000000081526004016116989190613394565b60405180910390fd5b600360008373ffffffffffffffffffffffffffffffffffffffff1673ffffffffffffffffffffffffffffffffffffffff168152602001908152602001600020549050919050565b6000600190505b60085481101561176757600073ffffffffffffffffffffffffffffffffffffffff1661171a826119b0565b73ffffffffffffffffffffffffffffffffffffffff16141580156117455750426117438261176a565b105b1561175457611753816121fa565b5b808061175f9061407f565b9150506116ef565b50565b6000600e600083815260200190815260200160002060000160149054906101000a900467ffffffffffffffff1667ffffffffffffffff169050919050565b6060600180546117b790613bf7565b80601f01602080910402602001604051908101604052809291908181526020018280546117e390613bf7565b80156118305780601f1061180557610100808354040283529160200191611830565b820191906000526020600020905b81548152906001019060200180831161181357829003601f168201915b5050505050905090565b61184c61184561219a565b83836125f9565b5050565b61185b84848461114d565b61186784848484612768565b50505050565b600f6000828152602001908152602001600020600080820160006118919190613112565b60018201600090556002820160006101000a81549073ffffffffffffffffffffffffffffffffffffffff02191690555050600080600090505b600b805490508110156119175782600b82815481106118ec576118eb6140fe565b5b90600052602060002001540361190457809150611917565b808061190f9061407f565b9150506118ca565b506001600b8054905061192a9190613cc3565b81101561198457600b6001600b805490506119459190613cc3565b81548110611956576119556140fe565b5b9060005260206000200154600b8281548110611975576119746140fe565b5b90600052602060002001819055505b600b8054806119965761199561412d565b5b600190038181906000526020600020016000905590555050565b600042600e600084815260200190815260200160002060000160149054906101000a900467ffffffffffffffff1667ffffffffffffffff1610611a2b57600e600083815260200190815260200160002060000160009054906101000a900473ffffffffffffffffffffffffffffffffffffffff169050611a30565b600090505b919050565b6060611a40826120d5565b506000600660008481526020019081526020016000208054611a6190613bf7565b80601f0160208091040260200160405190810160405280929190818152602001828054611a8d90613bf7565b8015611ada5780601f10611aaf57610100808354040283529160200191611ada565b820191906000526020600020905b815481529060010190602001808311611abd57829003601f168201915b505050505090506000611aeb61291f565b90506000815103611b00578192505050611b43565b600082511115611b35578082604051602001611b1d929190614198565b60405160208183030381529060405292505050611b43565b611b3e84612936565b925050505b919050565b60405180606001604052808381526020018281526020013373ffffffffffffffffffffffffffffffffffffffff16815250600f600060095481526020019081526020016000206000820151816000019081611ba39190614368565b506020820151816001015560408201518160020160006101000a81548173ffffffffffffffffffffffffffffffffffffffff021916908373ffffffffffffffffffffffffffffffffffffffff160217905550905050600b600954908060018154018082558091505060019003906000526020600020016000909190919091505560096000815480929190611c369061407f565b91905055505050565b6040517f08c379a0000000000000000000000000000000000000000000000000000000008152600401611c7190614486565b60405180910390fd5b611c826121b4565b3373ffffffffffffffffffffffffffffffffffffffff16611ca2826119b0565b73ffffffffffffffffffffffffffffffffffffffff1614611cf8576040517f08c379a0000000000000000000000000000000000000000000000000000000008152600401611cef90613c74565b60405180910390fd5b6000600e600083815260200190815260200160002090506000600f600083600201548152602001908152602001600020604051806060016040529081600082018054611d4390613bf7565b80601f0160208091040260200160405190810160405280929190818152602001828054611d6f90613bf7565b8015611dbc5780601f10611d9157610100808354040283529160200191611dbc565b820191906000526020600020905b815481529060010190602001808311611d9f57829003601f168201915b50505050508152602001600182015481526020016002820160009054906101000a900473ffffffffffffffffffffffffffffffffffffffff1673ffffffffffffffffffffffffffffffffffffffff1673ffffffffffffffffffffffffffffffffffffffff1681525050905060008160200151610e1034611e3c9190613d63565b611e469190613dd4565b9050600d5442611e569190614021565b818460000160149054906101000a900467ffffffffffffffff1667ffffffffffffffff16611e849190614021565b10611ec4576040517f08c379a0000000000000000000000000000000000000000000000000000000008152600401611ebb906144f2565b60405180910390fd5b3373ffffffffffffffffffffffffffffffffffffffff167f381c82ace1dd48ccb61648426892270a1ceb48c6ae1f5ce2872683ec0dc0d580600854604051611f0c919061364c565b60405180910390a2816040015173ffffffffffffffffffffffffffffffffffffffff166108fc349081150290604051600060405180830381858888f19350505050158015611f5e573d6000803e3d6000fd5b50808360000160149054906101000a900467ffffffffffffffff1667ffffffffffffffff16611f8d9190614021565b8360000160146101000a81548167ffffffffffffffff021916908367ffffffffffffffff16021790555034836001016000828254611fcb9190614021565b92505081905550505050611fdd612280565b50565b6000600560008473ffffffffffffffffffffffffffffffffffffffff1673ffffffffffffffffffffffffffffffffffffffff16815260200190815260200160002060008373ffffffffffffffffffffffffffffffffffffffff1673ffffffffffffffffffffffffffffffffffffffff16815260200190815260200160002060009054906101000a900460ff16905092915050565b6000634906490660e01b7bffffffffffffffffffffffffffffffffffffffffffffffffffffffff1916827bffffffffffffffffffffffffffffffffffffffffffffffffffffffff191614806120ce57506120cd8261299f565b5b9050919050565b6000806120e183612a81565b9050600073ffffffffffffffffffffffffffffffffffffffff168173ffffffffffffffffffffffffffffffffffffffff160361215457826040517f7e27328900000000000000000000000000000000000000000000000000000000815260040161214b919061364c565b60405180910390fd5b80915050919050565b60006004600083815260200190815260200160002060009054906101000a900473ffffffffffffffffffffffffffffffffffffffff169050919050565b600033905090565b6121af8383836001612abe565b505050565b6002600754036121f0576040517f3ee5aeb500000000000000000000000000000000000000000000000000000000815260040160405180910390fd5b6002600781905550565b600061220960008360006123df565b9050600073ffffffffffffffffffffffffffffffffffffffff168173ffffffffffffffffffffffffffffffffffffffff160361227c57816040517f7e273289000000000000000000000000000000000000000000000000000000008152600401612273919061364c565b60405180910390fd5b5050565b6001600781905550565b600073ffffffffffffffffffffffffffffffffffffffff168273ffffffffffffffffffffffffffffffffffffffff16036122fc5760006040517f64a0ae920000000000000000000000000000000000000000000000000000000081526004016122f39190613394565b60405180910390fd5b600061230a838360006123df565b9050600073ffffffffffffffffffffffffffffffffffffffff168173ffffffffffffffffffffffffffffffffffffffff161461237e5760006040517f73c6ac6e0000000000000000000000000000000000000000000000000000000081526004016123759190613394565b60405180910390fd5b505050565b806006600084815260200190815260200160002090816123a39190614368565b507ff8e1a15aba9398e019f0b49df1a4fde98ee17ae345cb5f6b5e2c27f5033e8ce7826040516123d3919061364c565b60405180910390a15050565b6000806123eb84612a81565b9050600073ffffffffffffffffffffffffffffffffffffffff168373ffffffffffffffffffffffffffffffffffffffff161461242d5761242c818486612c83565b5b600073ffffffffffffffffffffffffffffffffffffffff168173ffffffffffffffffffffffffffffffffffffffff16146124be5761246f600085600080612abe565b6001600360008373ffffffffffffffffffffffffffffffffffffffff1673ffffffffffffffffffffffffffffffffffffffff168152602001908152602001600020600082825403925050819055505b600073ffffffffffffffffffffffffffffffffffffffff168573ffffffffffffffffffffffffffffffffffffffff1614612541576001600360008773ffffffffffffffffffffffffffffffffffffffff1673ffffffffffffffffffffffffffffffffffffffff168152602001908152602001600020600082825401925050819055505b846002600086815260200190815260200160002060006101000a81548173ffffffffffffffffffffffffffffffffffffffff021916908373ffffffffffffffffffffffffffffffffffffffff160217905550838573ffffffffffffffffffffffffffffffffffffffff168273ffffffffffffffffffffffffffffffffffffffff167fddf252ad1be2c89b69c2b068fc378daa952ba7f163c4a11628f55a4df523b3ef60405160405180910390a4809150509392505050565b600073ffffffffffffffffffffffffffffffffffffffff168273ffffffffffffffffffffffffffffffffffffffff160361266a57816040517f5b08ba180000000000000000000000000000000000000000000000000000000081526004016126619190613394565b60405180910390fd5b80600560008573ffffffffffffffffffffffffffffffffffffffff1673ffffffffffffffffffffffffffffffffffffffff16815260200190815260200160002060008473ffffffffffffffffffffffffffffffffffffffff1673ffffffffffffffffffffffffffffffffffffffff16815260200190815260200160002060006101000a81548160ff0219169083151502179055508173ffffffffffffffffffffffffffffffffffffffff168373ffffffffffffffffffffffffffffffffffffffff167f17307eab39ab6107e8899845ad3d59bd9653f200f220920489ca2b5937696c318360405161275b9190613223565b60405180910390a3505050565b60008373ffffffffffffffffffffffffffffffffffffffff163b1115612919578273ffffffffffffffffffffffffffffffffffffffff1663150b7a026127ac61219a565b8685856040518563ffffffff1660e01b81526004016127ce9493929190614567565b6020604051808303816000875af192505050801561280a57506040513d601f19601f8201168201806040525081019061280791906145c8565b60015b61288e573d806000811461283a576040519150601f19603f3d011682016040523d82523d6000602084013e61283f565b606091505b50600081510361288657836040517f64a0ae9200000000000000000000000000000000000000000000000000000000815260040161287d9190613394565b60405180910390fd5b805181602001fd5b63150b7a0260e01b7bffffffffffffffffffffffffffffffffffffffffffffffffffffffff1916817bffffffffffffffffffffffffffffffffffffffffffffffffffffffff19161461291757836040517f64a0ae9200000000000000000000000000000000000000000000000000000000815260040161290e9190613394565b60405180910390fd5b505b50505050565b606060405180602001604052806000815250905090565b6060612941826120d5565b50600061294c61291f565b9050600081511161296c5760405180602001604052806000815250612997565b8061297684612d47565b604051602001612987929190614198565b6040516020818303038152906040525b915050919050565b60007f80ac58cd000000000000000000000000000000000000000000000000000000007bffffffffffffffffffffffffffffffffffffffffffffffffffffffff1916827bffffffffffffffffffffffffffffffffffffffffffffffffffffffff19161480612a6a57507f5b5e139f000000000000000000000000000000000000000000000000000000007bffffffffffffffffffffffffffffffffffffffffffffffffffffffff1916827bffffffffffffffffffffffffffffffffffffffffffffffffffffffff1916145b80612a7a5750612a7982612e15565b5b9050919050565b60006002600083815260200190815260200160002060009054906101000a900473ffffffffffffffffffffffffffffffffffffffff169050919050565b8080612af75750600073ffffffffffffffffffffffffffffffffffffffff168273ffffffffffffffffffffffffffffffffffffffff1614155b15612c2b576000612b07846120d5565b9050600073ffffffffffffffffffffffffffffffffffffffff168373ffffffffffffffffffffffffffffffffffffffff1614158015612b7257508273ffffffffffffffffffffffffffffffffffffffff168173ffffffffffffffffffffffffffffffffffffffff1614155b8015612b855750612b838184611fe0565b155b15612bc757826040517fa9fbf51f000000000000000000000000000000000000000000000000000000008152600401612bbe9190613394565b60405180910390fd5b8115612c2957838573ffffffffffffffffffffffffffffffffffffffff168273ffffffffffffffffffffffffffffffffffffffff167f8c5be1e5ebec7d5bd14f71427d1e84f3dd0314c0f7b2291e5b200ac8c7c3b92560405160405180910390a45b505b836004600085815260200190815260200160002060006101000a81548173ffffffffffffffffffffffffffffffffffffffff021916908373ffffffffffffffffffffffffffffffffffffffff16021790555050505050565b612c8e838383612e7f565b612d4257600073ffffffffffffffffffffffffffffffffffffffff168373ffffffffffffffffffffffffffffffffffffffff1603612d0357806040517f7e273289000000000000000000000000000000000000000000000000000000008152600401612cfa919061364c565b60405180910390fd5b81816040517f177e802f000000000000000000000000000000000000000000000000000000008152600401612d399291906145f5565b60405180910390fd5b505050565b606060006001612d5684612f40565b01905060008167ffffffffffffffff811115612d7557612d74613425565b5b6040519080825280601f01601f191660200182016040528015612da75781602001600182028036833780820191505090505b509050600082602001820190505b600115612e0a578080600190039150507f3031323334353637383961626364656600000000000000000000000000000000600a86061a8153600a8581612dfe57612dfd613da5565b5b04945060008503612db5575b819350505050919050565b60007f01ffc9a7000000000000000000000000000000000000000000000000000000007bffffffffffffffffffffffffffffffffffffffffffffffffffffffff1916827bffffffffffffffffffffffffffffffffffffffffffffffffffffffff1916149050919050565b60008073ffffffffffffffffffffffffffffffffffffffff168373ffffffffffffffffffffffffffffffffffffffff1614158015612f3757508273ffffffffffffffffffffffffffffffffffffffff168473ffffffffffffffffffffffffffffffffffffffff161480612ef85750612ef78484611fe0565b5b80612f3657508273ffffffffffffffffffffffffffffffffffffffff16612f1e8361215d565b73ffffffffffffffffffffffffffffffffffffffff16145b5b90509392505050565b600080600090507a184f03e93ff9f4daa797ed6e38ed64bf6a1f0100000000000000008310612f9e577a184f03e93ff9f4daa797ed6e38ed64bf6a1f0100000000000000008381612f9457612f93613da5565b5b0492506040810190505b6d04ee2d6d415b85acef81000000008310612fdb576d04ee2d6d415b85acef81000000008381612fd157612fd0613da5565b5b0492506020810190505b662386f26fc10000831061300a57662386f26fc10000838161300057612fff613da5565b5b0492506010810190505b6305f5e1008310613033576305f5e100838161302957613028613da5565b5b0492506008810190505b612710831061305857612710838161304e5761304d613da5565b5b0492506004810190505b6064831061307b576064838161307157613070613da5565b5b0492506002810190505b600a831061308a576001810190505b80915050919050565b6040518060800160405280600073ffffffffffffffffffffffffffffffffffffffff168152602001600067ffffffffffffffff16815260200160008152602001600081525090565b60405180606001604052806060815260200160008152602001600073ffffffffffffffffffffffffffffffffffffffff1681525090565b50805461311e90613bf7565b6000825580601f10613130575061314f565b601f01602090049060005260206000209081019061314e9190613152565b5b50565b5b8082111561316b576000816000905550600101613153565b5090565b6000604051905090565b600080fd5b600080fd5b60007fffffffff0000000000000000000000000000000000000000000000000000000082169050919050565b6131b881613183565b81146131c357600080fd5b50565b6000813590506131d5816131af565b92915050565b6000602082840312156131f1576131f0613179565b5b60006131ff848285016131c6565b91505092915050565b60008115159050919050565b61321d81613208565b82525050565b60006020820190506132386000830184613214565b92915050565b600081519050919050565b600082825260208201905092915050565b60005b8381101561327857808201518184015260208101905061325d565b60008484015250505050565b6000601f19601f8301169050919050565b60006132a08261323e565b6132aa8185613249565b93506132ba81856020860161325a565b6132c381613284565b840191505092915050565b600060208201905081810360008301526132e88184613295565b905092915050565b6000819050919050565b613303816132f0565b811461330e57600080fd5b50565b600081359050613320816132fa565b92915050565b60006020828403121561333c5761333b613179565b5b600061334a84828501613311565b91505092915050565b600073ffffffffffffffffffffffffffffffffffffffff82169050919050565b600061337e82613353565b9050919050565b61338e81613373565b82525050565b60006020820190506133a96000830184613385565b92915050565b6133b881613373565b81146133c357600080fd5b50565b6000813590506133d5816133af565b92915050565b600080604083850312156133f2576133f1613179565b5b6000613400858286016133c6565b925050602061341185828601613311565b9150509250929050565b600080fd5b600080fd5b7f4e487b7100000000000000000000000000000000000000000000000000000000600052604160045260246000fd5b61345d82613284565b810181811067ffffffffffffffff8211171561347c5761347b613425565b5b80604052505050565b600061348f61316f565b905061349b8282613454565b919050565b600067ffffffffffffffff8211156134bb576134ba613425565b5b6134c482613284565b9050602081019050919050565b82818337600083830152505050565b60006134f36134ee846134a0565b613485565b90508281526020810184848401111561350f5761350e613420565b5b61351a8482856134d1565b509392505050565b600082601f8301126135375761353661341b565b5b81356135478482602086016134e0565b91505092915050565b6000806040838503121561356757613566613179565b5b600083013567ffffffffffffffff8111156135855761358461317e565b5b61359185828601613522565b92505060206135a285828601613311565b9150509250929050565b6135b5816132f0565b82525050565b600060608201905081810360008301526135d58186613295565b90506135e460208301856135ac565b6135f16040830184613385565b949350505050565b60008060006060848603121561361257613611613179565b5b6000613620868287016133c6565b9350506020613631868287016133c6565b925050604061364286828701613311565b9150509250925092565b600060208201905061366160008301846135ac565b92915050565b600081519050919050565b600082825260208201905092915050565b6000819050602082019050919050565b61369c81613373565b82525050565b600067ffffffffffffffff82169050919050565b6136bf816136a2565b82525050565b6136ce816132f0565b82525050565b6080820160008201516136ea6000850182613693565b5060208201516136fd60208501826136b6565b50604082015161371060408501826136c5565b50606082015161372360608501826136c5565b50505050565b600061373583836136d4565b60808301905092915050565b6000602082019050919050565b600061375982613667565b6137638185613672565b935061376e83613683565b8060005b8381101561379f5781516137868882613729565b975061379183613741565b925050600181019050613772565b5085935050505092915050565b600060208201905081810360008301526137c6818461374e565b905092915050565b600081519050919050565b600082825260208201905092915050565b6000819050602082019050919050565b600082825260208201905092915050565b60006138168261323e565b61382081856137fa565b935061383081856020860161325a565b61383981613284565b840191505092915050565b60006060830160008301518482036000860152613861828261380b565b915050602083015161387660208601826136c5565b5060408301516138896040860182613693565b508091505092915050565b60006138a08383613844565b905092915050565b6000602082019050919050565b60006138c0826137ce565b6138ca81856137d9565b9350836020820285016138dc856137ea565b8060005b8581101561391857848403895281516138f98582613894565b9450613904836138a8565b925060208a019950506001810190506138e0565b50829750879550505050505092915050565b6000602082019050818103600083015261394481846138b5565b905092915050565b60006020828403121561396257613961613179565b5b6000613970848285016133c6565b91505092915050565b61398281613208565b811461398d57600080fd5b50565b60008135905061399f81613979565b92915050565b600080604083850312156139bc576139bb613179565b5b60006139ca858286016133c6565b92505060206139db85828601613990565b9150509250929050565b600067ffffffffffffffff821115613a00576139ff613425565b5b613a0982613284565b9050602081019050919050565b6000613a29613a24846139e5565b613485565b905082815260208101848484011115613a4557613a44613420565b5b613a508482856134d1565b509392505050565b600082601f830112613a6d57613a6c61341b565b5b8135613a7d848260208601613a16565b91505092915050565b60008060008060808587031215613aa057613a9f613179565b5b6000613aae878288016133c6565b9450506020613abf878288016133c6565b9350506040613ad087828801613311565b925050606085013567ffffffffffffffff811115613af157613af061317e565b5b613afd87828801613a58565b91505092959194509250565b613b12816136a2565b8114613b1d57600080fd5b50565b600081359050613b2f81613b09565b92915050565b600080600060608486031215613b4e57613b4d613179565b5b6000613b5c86828701613311565b9350506020613b6d868287016133c6565b9250506040613b7e86828701613b20565b9150509250925092565b60008060408385031215613b9f57613b9e613179565b5b6000613bad858286016133c6565b9250506020613bbe858286016133c6565b9150509250929050565b7f4e487b7100000000000000000000000000000000000000000000000000000000600052602260045260246000fd5b60006002820490506001821680613c0f57607f821691505b602082108103613c2257613c21613bc8565b5b50919050565b7f43616c6c6572206973206e6f74206f776e657200000000000000000000000000600082015250565b6000613c5e601383613249565b9150613c6982613c28565b602082019050919050565b60006020820190508181036000830152613c8d81613c51565b9050919050565b7f4e487b7100000000000000000000000000000000000000000000000000000000600052601160045260246000fd5b6000613cce826132f0565b9150613cd9836132f0565b9250828203905081811115613cf157613cf0613c94565b5b92915050565b7f52656e74616c2068617320616c72656164792065787069726564000000000000600082015250565b6000613d2d601a83613249565b9150613d3882613cf7565b602082019050919050565b60006020820190508181036000830152613d5c81613d20565b9050919050565b6000613d6e826132f0565b9150613d79836132f0565b9250828202613d87816132f0565b91508282048414831517613d9e57613d9d613c94565b5b5092915050565b7f4e487b7100000000000000000000000000000000000000000000000000000000600052601260045260246000fd5b6000613ddf826132f0565b9150613dea836132f0565b925082613dfa57613df9613da5565b5b828204905092915050565b7f496e73756666696369656e7420636f6e74726163742062616c616e6365000000600082015250565b6000613e3b601d83613249565b9150613e4682613e05565b602082019050919050565b60006020820190508181036000830152613e6a81613e2e565b9050919050565b7f596f75206861766520616c72656164792072656e7465642074686973204e4654600082015250565b6000613ea7602083613249565b9150613eb282613e71565b602082019050919050565b60006020820190508181036000830152613ed681613e9a565b9050919050565b7f417373697374616e742074656d706c617465206e6f7420666f756e6400000000600082015250565b6000613f13601c83613249565b9150613f1e82613edd565b602082019050919050565b60006020820190508181036000830152613f4281613f06565b9050919050565b7f4d696e696d756d2072656e74616c2074696d65206e6f74206d65740000000000600082015250565b6000613f7f601b83613249565b9150613f8a82613f49565b602082019050919050565b60006020820190508181036000830152613fae81613f72565b9050919050565b7f4578636565646564206d6178696d756d2072656e74616c2074696d6500000000600082015250565b6000613feb601c83613249565b9150613ff682613fb5565b602082019050919050565b6000602082019050818103600083015261401a81613fde565b9050919050565b600061402c826132f0565b9150614037836132f0565b925082820190508082111561404f5761404e613c94565b5b92915050565b61405e816136a2565b82525050565b60006020820190506140796000830184614055565b92915050565b600061408a826132f0565b91507fffffffffffffffffffffffffffffffffffffffffffffffffffffffffffffffff82036140bc576140bb613c94565b5b600182019050919050565b60006060820190506140dc6000830186613385565b6140e960208301856135ac565b6140f66040830184613385565b949350505050565b7f4e487b7100000000000000000000000000000000000000000000000000000000600052603260045260246000fd5b7f4e487b7100000000000000000000000000000000000000000000000000000000600052603160045260246000fd5b600081905092915050565b60006141728261323e565b61417c818561415c565b935061418c81856020860161325a565b80840191505092915050565b60006141a48285614167565b91506141b08284614167565b91508190509392505050565b60008190508160005260206000209050919050565b60006020601f8301049050919050565b600082821b905092915050565b60006008830261421e7fffffffffffffffffffffffffffffffffffffffffffffffffffffffffffffffff826141e1565b61422886836141e1565b95508019841693508086168417925050509392505050565b6000819050919050565b600061426561426061425b846132f0565b614240565b6132f0565b9050919050565b6000819050919050565b61427f8361424a565b61429361428b8261426c565b8484546141ee565b825550505050565b600090565b6142a861429b565b6142b3818484614276565b505050565b5b818110156142d7576142cc6000826142a0565b6001810190506142b9565b5050565b601f82111561431c576142ed816141bc565b6142f6846141d1565b81016020851015614305578190505b614319614311856141d1565b8301826142b8565b50505b505050565b600082821c905092915050565b600061433f60001984600802614321565b1980831691505092915050565b6000614358838361432e565b9150826002028217905092915050565b6143718261323e565b67ffffffffffffffff81111561438a57614389613425565b5b6143948254613bf7565b61439f8282856142db565b600060209050601f8311600181146143d257600084156143c0578287015190505b6143ca858261434c565b865550614432565b601f1984166143e0866141bc565b60005b82811015614408578489015182556001820191506020850194506020810190506143e3565b868310156144255784890151614421601f89168261432e565b8355505b6001600288020188555050505b505050505050565b7f63616e6e6f74206368616e676520757365720000000000000000000000000000600082015250565b6000614470601283613249565b915061447b8261443a565b602082019050919050565b6000602082019050818103600083015261449f81614463565b9050919050565b7f4d61782072656e74616c2074696d652065786365656465640000000000000000600082015250565b60006144dc601883613249565b91506144e7826144a6565b602082019050919050565b6000602082019050818103600083015261450b816144cf565b9050919050565b600081519050919050565b600082825260208201905092915050565b600061453982614512565b614543818561451d565b935061455381856020860161325a565b61455c81613284565b840191505092915050565b600060808201905061457c6000830187613385565b6145896020830186613385565b61459660408301856135ac565b81810360608301526145a8818461452e565b905095945050505050565b6000815190506145c2816131af565b92915050565b6000602082840312156145de576145dd613179565b5b60006145ec848285016145b3565b91505092915050565b600060408201905061460a6000830185613385565b61461760208301846135ac565b939250505056fea2646970667358221220cd3bf2fb4699569dcf5dbc93bca74d9cf41ef3752f68c8a33e8808af65fe0c9664736f6c63430008140033",
  "linkReferences": {},
  "deployedLinkReferences": {}
}