{
  "_format": "hh-sol-artifact-1",
  "contractName": "GPTStore",
  "sourceName": "contracts/GPTStore.sol",
  "abi": [
    {
      "inputs": [],
      "stateMutability": "nonpayable",
      "type": "constructor"
    },
    {
      "inputs": [
        {
          "internalType": "address",
          "name": "sender",
          "type": "address"
        },
        {
          "internalType": "uint256",
          "name": "tokenId",
          "type": "uint256"
        },
        {
          "internalType": "address",
          "name": "owner",
          "type": "address"
        }
      ],
      "name": "ERC721IncorrectOwner",
      "type": "error"
    },
    {
      "inputs": [
        {
          "internalType": "address",
          "name": "operator",
          "type": "address"
        },
        {
          "internalType": "uint256",
          "name": "tokenId",
          "type": "uint256"
        }
      ],
      "name": "ERC721InsufficientApproval",
      "type": "error"
    },
    {
      "inputs": [
        {
          "internalType": "address",
          "name": "approver",
          "type": "address"
        }
      ],
      "name": "ERC721InvalidApprover",
      "type": "error"
    },
    {
      "inputs": [
        {
          "internalType": "address",
          "name": "operator",
          "type": "address"
        }
      ],
      "name": "ERC721InvalidOperator",
      "type": "error"
    },
    {
      "inputs": [
        {
          "internalType": "address",
          "name": "owner",
          "type": "address"
        }
      ],
      "name": "ERC721InvalidOwner",
      "type": "error"
    },
    {
      "inputs": [
        {
          "internalType": "address",
          "name": "receiver",
          "type": "address"
        }
      ],
      "name": "ERC721InvalidReceiver",
      "type": "error"
    },
    {
      "inputs": [
        {
          "internalType": "address",
          "name": "sender",
          "type": "address"
        }
      ],
      "name": "ERC721InvalidSender",
      "type": "error"
    },
    {
      "inputs": [
        {
          "internalType": "uint256",
          "name": "tokenId",
          "type": "uint256"
        }
      ],
      "name": "ERC721NonexistentToken",
      "type": "error"
    },
    {
      "inputs": [],
      "name": "ReentrancyGuardReentrantCall",
      "type": "error"
    },
    {
      "anonymous": false,
      "inputs": [
        {
          "indexed": true,
          "internalType": "address",
          "name": "owner",
          "type": "address"
        },
        {
          "indexed": true,
          "internalType": "address",
          "name": "approved",
          "type": "address"
        },
        {
          "indexed": true,
          "internalType": "uint256",
          "name": "tokenId",
          "type": "uint256"
        }
      ],
      "name": "Approval",
      "type": "event"
    },
    {
      "anonymous": false,
      "inputs": [
        {
          "indexed": true,
          "internalType": "address",
          "name": "owner",
          "type": "address"
        },
        {
          "indexed": true,
          "internalType": "address",
          "name": "operator",
          "type": "address"
        },
        {
          "indexed": false,
          "internalType": "bool",
          "name": "approved",
          "type": "bool"
        }
      ],
      "name": "ApprovalForAll",
      "type": "event"
    },
    {
      "anonymous": false,
      "inputs": [
        {
          "indexed": false,
          "internalType": "uint256",
          "name": "_fromTokenId",
          "type": "uint256"
        },
        {
          "indexed": false,
          "internalType": "uint256",
          "name": "_toTokenId",
          "type": "uint256"
        }
      ],
      "name": "BatchMetadataUpdate",
      "type": "event"
    },
    {
      "anonymous": false,
      "inputs": [
        {
          "indexed": false,
          "internalType": "uint256",
          "name": "_tokenId",
          "type": "uint256"
        }
      ],
      "name": "MetadataUpdate",
      "type": "event"
    },
    {
      "anonymous": false,
      "inputs": [
        {
          "indexed": false,
          "internalType": "uint256",
          "name": "nftId",
          "type": "uint256"
        },
        {
          "indexed": true,
          "internalType": "address",
          "name": "user",
          "type": "address"
        }
      ],
      "name": "Rent",
      "type": "event"
    },
    {
      "anonymous": false,
      "inputs": [
        {
          "indexed": true,
          "internalType": "address",
          "name": "from",
          "type": "address"
        },
        {
          "indexed": true,
          "internalType": "address",
          "name": "to",
          "type": "address"
        },
        {
          "indexed": true,
          "internalType": "uint256",
          "name": "tokenId",
          "type": "uint256"
        }
      ],
      "name": "Transfer",
      "type": "event"
    },
    {
      "anonymous": false,
      "inputs": [
        {
          "indexed": true,
          "internalType": "uint256",
          "name": "tokenId",
          "type": "uint256"
        },
        {
          "indexed": true,
          "internalType": "address",
          "name": "user",
          "type": "address"
        },
        {
          "indexed": false,
          "internalType": "uint64",
          "name": "expires",
          "type": "uint64"
        }
      ],
      "name": "UpdateUser",
      "type": "event"
    },
    {
      "inputs": [
        {
          "internalType": "address",
          "name": "to",
          "type": "address"
        },
        {
          "internalType": "uint256",
          "name": "tokenId",
          "type": "uint256"
        }
      ],
      "name": "approve",
      "outputs": [],
      "stateMutability": "nonpayable",
      "type": "function"
    },
    {
      "inputs": [
        {
          "internalType": "uint256",
          "name": "",
          "type": "uint256"
        }
      ],
      "name": "assistantsGroups",
      "outputs": [
        {
          "internalType": "string",
          "name": "assistantID",
          "type": "string"
        },
        {
          "internalType": "uint256",
          "name": "pricePerHour",
          "type": "uint256"
        }
      ],
      "stateMutability": "view",
      "type": "function"
    },
    {
      "inputs": [
        {
          "internalType": "address",
          "name": "owner",
          "type": "address"
        }
      ],
      "name": "balanceOf",
      "outputs": [
        {
          "internalType": "uint256",
          "name": "",
          "type": "uint256"
        }
      ],
      "stateMutability": "view",
      "type": "function"
    },
    {
      "inputs": [],
      "name": "cleanUpOldRentals",
      "outputs": [],
      "stateMutability": "nonpayable",
      "type": "function"
    },
    {
      "inputs": [
        {
          "internalType": "uint256",
          "name": "tokenId",
          "type": "uint256"
        }
      ],
      "name": "extendRental",
      "outputs": [],
      "stateMutability": "payable",
      "type": "function"
    },
    {
      "inputs": [
        {
          "internalType": "uint256",
          "name": "tokenId",
          "type": "uint256"
        }
      ],
      "name": "getApproved",
      "outputs": [
        {
          "internalType": "address",
          "name": "",
          "type": "address"
        }
      ],
      "stateMutability": "view",
      "type": "function"
    },
    {
      "inputs": [],
      "name": "getAssistantIds",
      "outputs": [
        {
          "internalType": "uint256[]",
          "name": "",
          "type": "uint256[]"
        }
      ],
      "stateMutability": "view",
      "type": "function"
    },
    {
      "inputs": [
        {
          "internalType": "address",
          "name": "user",
          "type": "address"
        }
      ],
      "name": "getUserRentedAssistants",
      "outputs": [
        {
          "components": [
            {
              "internalType": "address",
              "name": "user",
              "type": "address"
            },
            {
              "internalType": "uint64",
              "name": "expires",
              "type": "uint64"
            },
            {
              "internalType": "uint256",
              "name": "payment",
              "type": "uint256"
            },
            {
              "internalType": "uint256",
              "name": "assistantNo",
              "type": "uint256"
            }
          ],
          "internalType": "struct GPTStore.UserInfo[]",
          "name": "",
          "type": "tuple[]"
        }
      ],
      "stateMutability": "view",
      "type": "function"
    },
    {
      "inputs": [
        {
          "internalType": "address",
          "name": "owner",
          "type": "address"
        },
        {
          "internalType": "address",
          "name": "operator",
          "type": "address"
        }
      ],
      "name": "isApprovedForAll",
      "outputs": [
        {
          "internalType": "bool",
          "name": "",
          "type": "bool"
        }
      ],
      "stateMutability": "view",
      "type": "function"
    },
    {
      "inputs": [],
      "name": "maxRentalTime",
      "outputs": [
        {
          "internalType": "uint256",
          "name": "",
          "type": "uint256"
        }
      ],
      "stateMutability": "view",
      "type": "function"
    },
    {
      "inputs": [],
      "name": "minRentalTime",
      "outputs": [
        {
          "internalType": "uint256",
          "name": "",
          "type": "uint256"
        }
      ],
      "stateMutability": "view",
      "type": "function"
    },
    {
      "inputs": [],
      "name": "name",
      "outputs": [
        {
          "internalType": "string",
          "name": "",
          "type": "string"
        }
      ],
      "stateMutability": "view",
      "type": "function"
    },
    {
      "inputs": [
        {
          "internalType": "uint256",
          "name": "tokenId",
          "type": "uint256"
        }
      ],
      "name": "ownerOf",
      "outputs": [
        {
          "internalType": "address",
          "name": "",
          "type": "address"
        }
      ],
      "stateMutability": "view",
      "type": "function"
    },
    {
      "inputs": [
        {
          "internalType": "uint256",
          "name": "id",
          "type": "uint256"
        }
      ],
      "name": "removeTemplate",
      "outputs": [],
      "stateMutability": "nonpayable",
      "type": "function"
    },
    {
      "inputs": [
        {
          "internalType": "string",
          "name": "metadata",
          "type": "string"
        },
        {
          "internalType": "uint256",
          "name": "assistantNo",
          "type": "uint256"
        }
      ],
      "name": "rent",
      "outputs": [],
      "stateMutability": "payable",
      "type": "function"
    },
    {
      "inputs": [
        {
          "internalType": "address",
          "name": "from",
          "type": "address"
        },
        {
          "internalType": "address",
          "name": "to",
          "type": "address"
        },
        {
          "internalType": "uint256",
          "name": "tokenId",
          "type": "uint256"
        }
      ],
      "name": "safeTransferFrom",
      "outputs": [],
      "stateMutability": "nonpayable",
      "type": "function"
    },
    {
      "inputs": [
        {
          "internalType": "address",
          "name": "from",
          "type": "address"
        },
        {
          "internalType": "address",
          "name": "to",
          "type": "address"
        },
        {
          "internalType": "uint256",
          "name": "tokenId",
          "type": "uint256"
        },
        {
          "internalType": "bytes",
          "name": "data",
          "type": "bytes"
        }
      ],
      "name": "safeTransferFrom",
      "outputs": [],
      "stateMutability": "nonpayable",
      "type": "function"
    },
    {
      "inputs": [
        {
          "internalType": "address",
          "name": "operator",
          "type": "address"
        },
        {
          "internalType": "bool",
          "name": "approved",
          "type": "bool"
        }
      ],
      "name": "setApprovalForAll",
      "outputs": [],
      "stateMutability": "nonpayable",
      "type": "function"
    },
    {
      "inputs": [
        {
          "internalType": "uint256",
          "name": "id",
          "type": "uint256"
        },
        {
          "internalType": "string",
          "name": "serverId",
          "type": "string"
        },
        {
          "internalType": "uint256",
          "name": "priceHour",
          "type": "uint256"
        }
      ],
      "name": "setAssistants",
      "outputs": [],
      "stateMutability": "nonpayable",
      "type": "function"
    },
    {
      "inputs": [
        {
          "internalType": "uint256",
          "name": "time",
          "type": "uint256"
        }
      ],
      "name": "setMaxRentalTime",
      "outputs": [],
      "stateMutability": "nonpayable",
      "type": "function"
    },
    {
      "inputs": [
        {
          "internalType": "uint256",
          "name": "time",
          "type": "uint256"
        }
      ],
      "name": "setMinRentalTime",
      "outputs": [],
      "stateMutability": "nonpayable",
      "type": "function"
    },
    {
      "inputs": [
        {
          "internalType": "uint256",
          "name": "",
          "type": "uint256"
        },
        {
          "internalType": "address",
          "name": "",
          "type": "address"
        },
        {
          "internalType": "uint64",
          "name": "",
          "type": "uint64"
        }
      ],
      "name": "setUser",
      "outputs": [],
      "stateMutability": "pure",
      "type": "function"
    },
    {
      "inputs": [
        {
          "internalType": "uint256",
          "name": "tokenId",
          "type": "uint256"
        }
      ],
      "name": "stopRental",
      "outputs": [],
      "stateMutability": "nonpayable",
      "type": "function"
    },
    {
      "inputs": [
        {
          "internalType": "bytes4",
          "name": "interfaceId",
          "type": "bytes4"
        }
      ],
      "name": "supportsInterface",
      "outputs": [
        {
          "internalType": "bool",
          "name": "",
          "type": "bool"
        }
      ],
      "stateMutability": "view",
      "type": "function"
    },
    {
      "inputs": [],
      "name": "symbol",
      "outputs": [
        {
          "internalType": "string",
          "name": "",
          "type": "string"
        }
      ],
      "stateMutability": "view",
      "type": "function"
    },
    {
      "inputs": [
        {
          "internalType": "uint256",
          "name": "tokenId",
          "type": "uint256"
        }
      ],
      "name": "tokenURI",
      "outputs": [
        {
          "internalType": "string",
          "name": "",
          "type": "string"
        }
      ],
      "stateMutability": "view",
      "type": "function"
    },
    {
      "inputs": [
        {
          "internalType": "address",
          "name": "from",
          "type": "address"
        },
        {
          "internalType": "address",
          "name": "to",
          "type": "address"
        },
        {
          "internalType": "uint256",
          "name": "tokenId",
          "type": "uint256"
        }
      ],
      "name": "transferFrom",
      "outputs": [],
      "stateMutability": "nonpayable",
      "type": "function"
    },
    {
      "inputs": [
        {
          "internalType": "uint256",
          "name": "tokenId",
          "type": "uint256"
        }
      ],
      "name": "userExpires",
      "outputs": [
        {
          "internalType": "uint256",
          "name": "",
          "type": "uint256"
        }
      ],
      "stateMutability": "view",
      "type": "function"
    },
    {
      "inputs": [
        {
          "internalType": "uint256",
          "name": "tokenId",
          "type": "uint256"
        }
      ],
      "name": "userOf",
      "outputs": [
        {
          "internalType": "address",
          "name": "",
          "type": "address"
        }
      ],
      "stateMutability": "view",
      "type": "function"
    }
  ],
  "bytecode": "0x60806040526001600855610708600a5562278d00600b553480156200002357600080fd5b506040518060400160405280600881526020017f47505453746f72650000000000000000000000000000000000000000000000008152506040518060400160405280600381526020017f47505400000000000000000000000000000000000000000000000000000000008152508160009081620000a191906200037f565b508060019081620000b391906200037f565b505050600160078190555033600960006101000a81548173ffffffffffffffffffffffffffffffffffffffff021916908373ffffffffffffffffffffffffffffffffffffffff16021790555062000466565b600081519050919050565b7f4e487b7100000000000000000000000000000000000000000000000000000000600052604160045260246000fd5b7f4e487b7100000000000000000000000000000000000000000000000000000000600052602260045260246000fd5b600060028204905060018216806200018757607f821691505b6020821081036200019d576200019c6200013f565b5b50919050565b60008190508160005260206000209050919050565b60006020601f8301049050919050565b600082821b905092915050565b600060088302620002077fffffffffffffffffffffffffffffffffffffffffffffffffffffffffffffffff82620001c8565b620002138683620001c8565b95508019841693508086168417925050509392505050565b6000819050919050565b6000819050919050565b6000620002606200025a62000254846200022b565b62000235565b6200022b565b9050919050565b6000819050919050565b6200027c836200023f565b620002946200028b8262000267565b848454620001d5565b825550505050565b600090565b620002ab6200029c565b620002b881848462000271565b505050565b5b81811015620002e057620002d4600082620002a1565b600181019050620002be565b5050565b601f8211156200032f57620002f981620001a3565b6200030484620001b8565b8101602085101562000314578190505b6200032c6200032385620001b8565b830182620002bd565b50505b505050565b600082821c905092915050565b6000620003546000198460080262000334565b1980831691505092915050565b60006200036f838362000341565b9150826002028217905092915050565b6200038a8262000105565b67ffffffffffffffff811115620003a657620003a562000110565b5b620003b282546200016e565b620003bf828285620002e4565b600060209050601f831160018114620003f75760008415620003e2578287015190505b620003ee858262000361565b8655506200045e565b601f1984166200040786620001a3565b60005b8281101562000431578489015182556001820191506020850194506020810190506200040a565b868310156200045157848901516200044d601f89168262000341565b8355505b6001600288020188555050505b505050505050565b61406880620004766000396000f3fe6080604052600436106101c25760003560e01c806370a08231116100f7578063c2f1f14a11610095578063d8072e5a11610064578063d8072e5a14610654578063e030565e14610691578063e1eb3ea9146106ba578063e985e9c5146106d6576101c2565b8063c2f1f14a14610586578063c87b56dd146105c3578063d0b9dd5414610600578063d5eee3d614610629576101c2565b806395d89b41116100d157806395d89b41146104e0578063a22cb4651461050b578063b88d4fde14610534578063c04d0ab71461055d576101c2565b806370a082311461044f5780637dbed4461461048c5780638fc88c48146104a3576101c2565b806320f8a14d1161016457806342842e0e1161013e57806342842e0e146103955780636352211e146103be57806367c5d1b1146103fb578063707c395214610426576101c2565b806320f8a14d1461030357806323b872dd146103415780632ce7a0171461036a576101c2565b8063095ea7b3116101a0578063095ea7b31461026c578063156ecc3d14610295578063166ce434146102be5780631da405ec146102e7576101c2565b806301ffc9a7146101c757806306fdde0314610204578063081812fc1461022f575b600080fd5b3480156101d357600080fd5b506101ee60048036038101906101e99190612cd6565b610713565b6040516101fb9190612d1e565b60405180910390f35b34801561021057600080fd5b5061021961078d565b6040516102269190612dc9565b60405180910390f35b34801561023b57600080fd5b5061025660048036038101906102519190612e21565b61081f565b6040516102639190612e8f565b60405180910390f35b34801561027857600080fd5b50610293600480360381019061028e9190612ed6565b61083b565b005b3480156102a157600080fd5b506102bc60048036038101906102b79190612e21565b610851565b005b3480156102ca57600080fd5b506102e560048036038101906102e09190612e21565b610b57565b005b61030160048036038101906102fc919061304b565b610b61565b005b34801561030f57600080fd5b5061032a60048036038101906103259190612e21565b610f17565b6040516103389291906130b6565b60405180910390f35b34801561034d57600080fd5b50610368600480360381019061036391906130e6565b610fc3565b005b34801561037657600080fd5b5061037f6110c5565b60405161038c9190613139565b60405180910390f35b3480156103a157600080fd5b506103bc60048036038101906103b791906130e6565b6110cb565b005b3480156103ca57600080fd5b506103e560048036038101906103e09190612e21565b6110eb565b6040516103f29190612e8f565b60405180910390f35b34801561040757600080fd5b506104106110fd565b60405161041d9190613139565b60405180910390f35b34801561043257600080fd5b5061044d60048036038101906104489190612e21565b611103565b005b34801561045b57600080fd5b5061047660048036038101906104719190613154565b61110d565b6040516104839190613139565b60405180910390f35b34801561049857600080fd5b506104a16111c7565b005b3480156104af57600080fd5b506104ca60048036038101906104c59190612e21565b611249565b6040516104d79190613139565b60405180910390f35b3480156104ec57600080fd5b506104f5611287565b6040516105029190612dc9565b60405180910390f35b34801561051757600080fd5b50610532600480360381019061052d91906131ad565b611319565b005b34801561054057600080fd5b5061055b6004803603810190610556919061328e565b61132f565b005b34801561056957600080fd5b50610584600480360381019061057f9190612e21565b61134c565b005b34801561059257600080fd5b506105ad60048036038101906105a89190612e21565b61137d565b6040516105ba9190612e8f565b60405180910390f35b3480156105cf57600080fd5b506105ea60048036038101906105e59190612e21565b611402565b6040516105f79190612dc9565b60405180910390f35b34801561060c57600080fd5b5061062760048036038101906106229190613311565b611515565b005b34801561063557600080fd5b5061063e61158e565b60405161064b919061343e565b60405180910390f35b34801561066057600080fd5b5061067b60048036038101906106769190613154565b6115e6565b6040516106889190613596565b60405180910390f35b34801561069d57600080fd5b506106b860048036038101906106b391906135e4565b6117a9565b005b6106d460048036038101906106cf9190612e21565b6117e4565b005b3480156106e257600080fd5b506106fd60048036038101906106f89190613637565b611b12565b60405161070a9190612d1e565b60405180910390f35b60007fad092b5c000000000000000000000000000000000000000000000000000000007bffffffffffffffffffffffffffffffffffffffffffffffffffffffff1916827bffffffffffffffffffffffffffffffffffffffffffffffffffffffff19161480610786575061078582611ba6565b5b9050919050565b60606000805461079c906136a6565b80601f01602080910402602001604051908101604052809291908181526020018280546107c8906136a6565b80156108155780601f106107ea57610100808354040283529160200191610815565b820191906000526020600020905b8154815290600101906020018083116107f857829003601f168201915b5050505050905090565b600061082a82611c07565b5061083482611c8f565b9050919050565b61084d8282610848611ccc565b611cd4565b5050565b610859611ce6565b3373ffffffffffffffffffffffffffffffffffffffff166108798261137d565b73ffffffffffffffffffffffffffffffffffffffff16146108cf576040517f08c379a00000000000000000000000000000000000000000000000000000000081526004016108c690613723565b60405180910390fd5b6000600c600083815260200190815260200160002090506000600d60008360020154815260200190815260200160002060405180604001604052908160008201805461091a906136a6565b80601f0160208091040260200160405190810160405280929190818152602001828054610946906136a6565b80156109935780601f1061096857610100808354040283529160200191610993565b820191906000526020600020905b81548152906001019060200180831161097657829003601f168201915b5050505050815260200160018201548152505090506000603c428460000160149054906101000a900467ffffffffffffffff1667ffffffffffffffff166109da9190613772565b6109e49190613772565b905060008111610a29576040517f08c379a0000000000000000000000000000000000000000000000000000000008152600401610a20906137f2565b60405180910390fd5b3373ffffffffffffffffffffffffffffffffffffffff167f381c82ace1dd48ccb61648426892270a1ceb48c6ae1f5ce2872683ec0dc0d580600854604051610a719190613139565b60405180910390a26000610e10836020015183610a8e9190613812565b610a989190613883565b905080471015610add576040517f08c379a0000000000000000000000000000000000000000000000000000000008152600401610ad490613900565b60405180910390fd5b3373ffffffffffffffffffffffffffffffffffffffff166108fc829081150290604051600060405180830381858888f19350505050158015610b23573d6000803e3d6000fd5b5080846001016000828254610b389190613772565b92505081905550610b4885611d2c565b50505050610b54611db2565b50565b80600b8190555050565b610b69611ce6565b6000600d60008381526020019081526020016000206001015411610bc2576040517f08c379a0000000000000000000000000000000000000000000000000000000008152600401610bb99061396c565b60405180910390fd5b610bca6111c7565b6000600d600083815260200190815260200160002060010154610e1034610bf19190613812565b610bfb9190613883565b9050600a54811015610c42576040517f08c379a0000000000000000000000000000000000000000000000000000000008152600401610c39906139d8565b60405180910390fd5b600b54811115610c87576040517f08c379a0000000000000000000000000000000000000000000000000000000008152600401610c7e90613a44565b60405180910390fd5b3373ffffffffffffffffffffffffffffffffffffffff167f381c82ace1dd48ccb61648426892270a1ceb48c6ae1f5ce2872683ec0dc0d580600854604051610ccf9190613139565b60405180910390a2600960009054906101000a900473ffffffffffffffffffffffffffffffffffffffff1673ffffffffffffffffffffffffffffffffffffffff166108fc349081150290604051600060405180830381858888f19350505050158015610d3f573d6000803e3d6000fd5b50610d4c33600854611dbc565b610d5860085484611eb5565b6000600c600060085481526020019081526020016000209050338160000160006101000a81548173ffffffffffffffffffffffffffffffffffffffff021916908373ffffffffffffffffffffffffffffffffffffffff1602179055508142610dc09190613a64565b8160000160146101000a81548167ffffffffffffffff021916908367ffffffffffffffff1602179055508281600201819055503481600101819055508060000160009054906101000a900473ffffffffffffffffffffffffffffffffffffffff1673ffffffffffffffffffffffffffffffffffffffff166008547f4e06b4e7000e659094299b3533b47b6aa8ad048e95e872d23d1f4ee55af89cfe8360000160149054906101000a900467ffffffffffffffff16604051610e819190613aa7565b60405180910390a3600e60003373ffffffffffffffffffffffffffffffffffffffff1673ffffffffffffffffffffffffffffffffffffffff168152602001908152602001600020600854908060018154018082558091505060019003906000526020600020016000909190919091505560086000815480929190610f0490613ac2565b91905055505050610f13611db2565b5050565b600d602052806000526040600020600091509050806000018054610f3a906136a6565b80601f0160208091040260200160405190810160405280929190818152602001828054610f66906136a6565b8015610fb35780601f10610f8857610100808354040283529160200191610fb3565b820191906000526020600020905b815481529060010190602001808311610f9657829003601f168201915b5050505050908060010154905082565b600073ffffffffffffffffffffffffffffffffffffffff168273ffffffffffffffffffffffffffffffffffffffff16036110355760006040517f64a0ae9200000000000000000000000000000000000000000000000000000000815260040161102c9190612e8f565b60405180910390fd5b60006110498383611044611ccc565b611f11565b90508373ffffffffffffffffffffffffffffffffffffffff168173ffffffffffffffffffffffffffffffffffffffff16146110bf578382826040517f64283d7b0000000000000000000000000000000000000000000000000000000081526004016110b693929190613b0a565b60405180910390fd5b50505050565b600a5481565b6110e68383836040518060200160405280600081525061132f565b505050565b60006110f682611c07565b9050919050565b600b5481565b80600a8190555050565b60008073ffffffffffffffffffffffffffffffffffffffff168273ffffffffffffffffffffffffffffffffffffffff16036111805760006040517f89c62b640000000000000000000000000000000000000000000000000000000081526004016111779190612e8f565b60405180910390fd5b600360008373ffffffffffffffffffffffffffffffffffffffff1673ffffffffffffffffffffffffffffffffffffffff168152602001908152602001600020549050919050565b6000600190505b60085481101561124657600073ffffffffffffffffffffffffffffffffffffffff166111f98261137d565b73ffffffffffffffffffffffffffffffffffffffff161415801561122457504261122282611249565b105b156112335761123281611d2c565b5b808061123e90613ac2565b9150506111ce565b50565b6000600c600083815260200190815260200160002060000160149054906101000a900467ffffffffffffffff1667ffffffffffffffff169050919050565b606060018054611296906136a6565b80601f01602080910402602001604051908101604052809291908181526020018280546112c2906136a6565b801561130f5780601f106112e45761010080835404028352916020019161130f565b820191906000526020600020905b8154815290600101906020018083116112f257829003601f168201915b5050505050905090565b61132b611324611ccc565b838361212b565b5050565b61133a848484610fc3565b6113468484848461229a565b50505050565b600d6000828152602001908152602001600020600080820160006113709190612bc5565b6001820160009055505050565b600042600c600084815260200190815260200160002060000160149054906101000a900467ffffffffffffffff1667ffffffffffffffff16106113f857600c600083815260200190815260200160002060000160009054906101000a900473ffffffffffffffffffffffffffffffffffffffff1690506113fd565b600090505b919050565b606061140d82611c07565b50600060066000848152602001908152602001600020805461142e906136a6565b80601f016020809104026020016040519081016040528092919081815260200182805461145a906136a6565b80156114a75780601f1061147c576101008083540402835291602001916114a7565b820191906000526020600020905b81548152906001019060200180831161148a57829003601f168201915b5050505050905060006114b8612451565b905060008151036114cd578192505050611510565b6000825111156115025780826040516020016114ea929190613b7d565b60405160208183030381529060405292505050611510565b61150b84612468565b925050505b919050565b604051806040016040528083815260200182815250600d600085815260200190815260200160002060008201518160000190816115529190613d4d565b5060208201518160010155905050600f839080600181540180825580915050600190039060005260206000200160009091909190915055505050565b6060600f8054806020026020016040519081016040528092919081815260200182805480156115dc57602002820191906000526020600020905b8154815260200190600101908083116115c8575b5050505050905090565b60606000600e60008473ffffffffffffffffffffffffffffffffffffffff1673ffffffffffffffffffffffffffffffffffffffff16815260200190815260200160002090506000818054905067ffffffffffffffff81111561164b5761164a612f20565b5b60405190808252806020026020018201604052801561168457816020015b611671612c05565b8152602001906001900390816116695790505b50905060005b828054905081101561179e57600c60008483815481106116ad576116ac613e1f565b5b906000526020600020015481526020019081526020016000206040518060800160405290816000820160009054906101000a900473ffffffffffffffffffffffffffffffffffffffff1673ffffffffffffffffffffffffffffffffffffffff1673ffffffffffffffffffffffffffffffffffffffff1681526020016000820160149054906101000a900467ffffffffffffffff1667ffffffffffffffff1667ffffffffffffffff168152602001600182015481526020016002820154815250508282815181106117805761177f613e1f565b5b6020026020010181905250808061179690613ac2565b91505061168a565b508092505050919050565b6040517f08c379a00000000000000000000000000000000000000000000000000000000081526004016117db90613e9a565b60405180910390fd5b6117ec611ce6565b3373ffffffffffffffffffffffffffffffffffffffff1661180c8261137d565b73ffffffffffffffffffffffffffffffffffffffff1614611862576040517f08c379a000000000000000000000000000000000000000000000000000000000815260040161185990613723565b60405180910390fd5b6000600c600083815260200190815260200160002090506000600d6000836002015481526020019081526020016000206040518060400160405290816000820180546118ad906136a6565b80601f01602080910402602001604051908101604052809291908181526020018280546118d9906136a6565b80156119265780601f106118fb57610100808354040283529160200191611926565b820191906000526020600020905b81548152906001019060200180831161190957829003601f168201915b50505050508152602001600182015481525050905060008160200151610e10346119509190613812565b61195a9190613883565b9050600b544261196a9190613a64565b818460000160149054906101000a900467ffffffffffffffff1667ffffffffffffffff166119989190613a64565b106119d8576040517f08c379a00000000000000000000000000000000000000000000000000000000081526004016119cf90613f06565b60405180910390fd5b3373ffffffffffffffffffffffffffffffffffffffff167f381c82ace1dd48ccb61648426892270a1ceb48c6ae1f5ce2872683ec0dc0d580600854604051611a209190613139565b60405180910390a2600960009054906101000a900473ffffffffffffffffffffffffffffffffffffffff1673ffffffffffffffffffffffffffffffffffffffff166108fc349081150290604051600060405180830381858888f19350505050158015611a90573d6000803e3d6000fd5b50808360000160149054906101000a900467ffffffffffffffff1667ffffffffffffffff16611abf9190613a64565b8360000160146101000a81548167ffffffffffffffff021916908367ffffffffffffffff16021790555034836001016000828254611afd9190613a64565b92505081905550505050611b0f611db2565b50565b6000600560008473ffffffffffffffffffffffffffffffffffffffff1673ffffffffffffffffffffffffffffffffffffffff16815260200190815260200160002060008373ffffffffffffffffffffffffffffffffffffffff1673ffffffffffffffffffffffffffffffffffffffff16815260200190815260200160002060009054906101000a900460ff16905092915050565b6000634906490660e01b7bffffffffffffffffffffffffffffffffffffffffffffffffffffffff1916827bffffffffffffffffffffffffffffffffffffffffffffffffffffffff19161480611c005750611bff826124d1565b5b9050919050565b600080611c13836125b3565b9050600073ffffffffffffffffffffffffffffffffffffffff168173ffffffffffffffffffffffffffffffffffffffff1603611c8657826040517f7e273289000000000000000000000000000000000000000000000000000000008152600401611c7d9190613139565b60405180910390fd5b80915050919050565b60006004600083815260200190815260200160002060009054906101000a900473ffffffffffffffffffffffffffffffffffffffff169050919050565b600033905090565b611ce183838360016125f0565b505050565b600260075403611d22576040517f3ee5aeb500000000000000000000000000000000000000000000000000000000815260040160405180910390fd5b6002600781905550565b6000611d3b6000836000611f11565b9050600073ffffffffffffffffffffffffffffffffffffffff168173ffffffffffffffffffffffffffffffffffffffff1603611dae57816040517f7e273289000000000000000000000000000000000000000000000000000000008152600401611da59190613139565b60405180910390fd5b5050565b6001600781905550565b600073ffffffffffffffffffffffffffffffffffffffff168273ffffffffffffffffffffffffffffffffffffffff1603611e2e5760006040517f64a0ae92000000000000000000000000000000000000000000000000000000008152600401611e259190612e8f565b60405180910390fd5b6000611e3c83836000611f11565b9050600073ffffffffffffffffffffffffffffffffffffffff168173ffffffffffffffffffffffffffffffffffffffff1614611eb05760006040517f73c6ac6e000000000000000000000000000000000000000000000000000000008152600401611ea79190612e8f565b60405180910390fd5b505050565b80600660008481526020019081526020016000209081611ed59190613d4d565b507ff8e1a15aba9398e019f0b49df1a4fde98ee17ae345cb5f6b5e2c27f5033e8ce782604051611f059190613139565b60405180910390a15050565b600080611f1d846125b3565b9050600073ffffffffffffffffffffffffffffffffffffffff168373ffffffffffffffffffffffffffffffffffffffff1614611f5f57611f5e8184866127b5565b5b600073ffffffffffffffffffffffffffffffffffffffff168173ffffffffffffffffffffffffffffffffffffffff1614611ff057611fa16000856000806125f0565b6001600360008373ffffffffffffffffffffffffffffffffffffffff1673ffffffffffffffffffffffffffffffffffffffff168152602001908152602001600020600082825403925050819055505b600073ffffffffffffffffffffffffffffffffffffffff168573ffffffffffffffffffffffffffffffffffffffff1614612073576001600360008773ffffffffffffffffffffffffffffffffffffffff1673ffffffffffffffffffffffffffffffffffffffff168152602001908152602001600020600082825401925050819055505b846002600086815260200190815260200160002060006101000a81548173ffffffffffffffffffffffffffffffffffffffff021916908373ffffffffffffffffffffffffffffffffffffffff160217905550838573ffffffffffffffffffffffffffffffffffffffff168273ffffffffffffffffffffffffffffffffffffffff167fddf252ad1be2c89b69c2b068fc378daa952ba7f163c4a11628f55a4df523b3ef60405160405180910390a4809150509392505050565b600073ffffffffffffffffffffffffffffffffffffffff168273ffffffffffffffffffffffffffffffffffffffff160361219c57816040517f5b08ba180000000000000000000000000000000000000000000000000000000081526004016121939190612e8f565b60405180910390fd5b80600560008573ffffffffffffffffffffffffffffffffffffffff1673ffffffffffffffffffffffffffffffffffffffff16815260200190815260200160002060008473ffffffffffffffffffffffffffffffffffffffff1673ffffffffffffffffffffffffffffffffffffffff16815260200190815260200160002060006101000a81548160ff0219169083151502179055508173ffffffffffffffffffffffffffffffffffffffff168373ffffffffffffffffffffffffffffffffffffffff167f17307eab39ab6107e8899845ad3d59bd9653f200f220920489ca2b5937696c318360405161228d9190612d1e565b60405180910390a3505050565b60008373ffffffffffffffffffffffffffffffffffffffff163b111561244b578273ffffffffffffffffffffffffffffffffffffffff1663150b7a026122de611ccc565b8685856040518563ffffffff1660e01b81526004016123009493929190613f7b565b6020604051808303816000875af192505050801561233c57506040513d601f19601f820116820180604052508101906123399190613fdc565b60015b6123c0573d806000811461236c576040519150601f19603f3d011682016040523d82523d6000602084013e612371565b606091505b5060008151036123b857836040517f64a0ae920000000000000000000000000000000000000000000000000000000081526004016123af9190612e8f565b60405180910390fd5b805181602001fd5b63150b7a0260e01b7bffffffffffffffffffffffffffffffffffffffffffffffffffffffff1916817bffffffffffffffffffffffffffffffffffffffffffffffffffffffff19161461244957836040517f64a0ae920000000000000000000000000000000000000000000000000000000081526004016124409190612e8f565b60405180910390fd5b505b50505050565b606060405180602001604052806000815250905090565b606061247382611c07565b50600061247e612451565b9050600081511161249e57604051806020016040528060008152506124c9565b806124a884612879565b6040516020016124b9929190613b7d565b6040516020818303038152906040525b915050919050565b60007f80ac58cd000000000000000000000000000000000000000000000000000000007bffffffffffffffffffffffffffffffffffffffffffffffffffffffff1916827bffffffffffffffffffffffffffffffffffffffffffffffffffffffff1916148061259c57507f5b5e139f000000000000000000000000000000000000000000000000000000007bffffffffffffffffffffffffffffffffffffffffffffffffffffffff1916827bffffffffffffffffffffffffffffffffffffffffffffffffffffffff1916145b806125ac57506125ab82612947565b5b9050919050565b60006002600083815260200190815260200160002060009054906101000a900473ffffffffffffffffffffffffffffffffffffffff169050919050565b80806126295750600073ffffffffffffffffffffffffffffffffffffffff168273ffffffffffffffffffffffffffffffffffffffff1614155b1561275d57600061263984611c07565b9050600073ffffffffffffffffffffffffffffffffffffffff168373ffffffffffffffffffffffffffffffffffffffff16141580156126a457508273ffffffffffffffffffffffffffffffffffffffff168173ffffffffffffffffffffffffffffffffffffffff1614155b80156126b757506126b58184611b12565b155b156126f957826040517fa9fbf51f0000000000000000000000000000000000000000000000000000000081526004016126f09190612e8f565b60405180910390fd5b811561275b57838573ffffffffffffffffffffffffffffffffffffffff168273ffffffffffffffffffffffffffffffffffffffff167f8c5be1e5ebec7d5bd14f71427d1e84f3dd0314c0f7b2291e5b200ac8c7c3b92560405160405180910390a45b505b836004600085815260200190815260200160002060006101000a81548173ffffffffffffffffffffffffffffffffffffffff021916908373ffffffffffffffffffffffffffffffffffffffff16021790555050505050565b6127c08383836129b1565b61287457600073ffffffffffffffffffffffffffffffffffffffff168373ffffffffffffffffffffffffffffffffffffffff160361283557806040517f7e27328900000000000000000000000000000000000000000000000000000000815260040161282c9190613139565b60405180910390fd5b81816040517f177e802f00000000000000000000000000000000000000000000000000000000815260040161286b929190614009565b60405180910390fd5b505050565b60606000600161288884612a72565b01905060008167ffffffffffffffff8111156128a7576128a6612f20565b5b6040519080825280601f01601f1916602001820160405280156128d95781602001600182028036833780820191505090505b509050600082602001820190505b60011561293c578080600190039150507f3031323334353637383961626364656600000000000000000000000000000000600a86061a8153600a85816129305761292f613854565b5b049450600085036128e7575b819350505050919050565b60007f01ffc9a7000000000000000000000000000000000000000000000000000000007bffffffffffffffffffffffffffffffffffffffffffffffffffffffff1916827bffffffffffffffffffffffffffffffffffffffffffffffffffffffff1916149050919050565b60008073ffffffffffffffffffffffffffffffffffffffff168373ffffffffffffffffffffffffffffffffffffffff1614158015612a6957508273ffffffffffffffffffffffffffffffffffffffff168473ffffffffffffffffffffffffffffffffffffffff161480612a2a5750612a298484611b12565b5b80612a6857508273ffffffffffffffffffffffffffffffffffffffff16612a5083611c8f565b73ffffffffffffffffffffffffffffffffffffffff16145b5b90509392505050565b600080600090507a184f03e93ff9f4daa797ed6e38ed64bf6a1f0100000000000000008310612ad0577a184f03e93ff9f4daa797ed6e38ed64bf6a1f0100000000000000008381612ac657612ac5613854565b5b0492506040810190505b6d04ee2d6d415b85acef81000000008310612b0d576d04ee2d6d415b85acef81000000008381612b0357612b02613854565b5b0492506020810190505b662386f26fc100008310612b3c57662386f26fc100008381612b3257612b31613854565b5b0492506010810190505b6305f5e1008310612b65576305f5e1008381612b5b57612b5a613854565b5b0492506008810190505b6127108310612b8a576127108381612b8057612b7f613854565b5b0492506004810190505b60648310612bad5760648381612ba357612ba2613854565b5b0492506002810190505b600a8310612bbc576001810190505b80915050919050565b508054612bd1906136a6565b6000825580601f10612be35750612c02565b601f016020900490600052602060002090810190612c019190612c4d565b5b50565b6040518060800160405280600073ffffffffffffffffffffffffffffffffffffffff168152602001600067ffffffffffffffff16815260200160008152602001600081525090565b5b80821115612c66576000816000905550600101612c4e565b5090565b6000604051905090565b600080fd5b600080fd5b60007fffffffff0000000000000000000000000000000000000000000000000000000082169050919050565b612cb381612c7e565b8114612cbe57600080fd5b50565b600081359050612cd081612caa565b92915050565b600060208284031215612cec57612ceb612c74565b5b6000612cfa84828501612cc1565b91505092915050565b60008115159050919050565b612d1881612d03565b82525050565b6000602082019050612d336000830184612d0f565b92915050565b600081519050919050565b600082825260208201905092915050565b60005b83811015612d73578082015181840152602081019050612d58565b60008484015250505050565b6000601f19601f8301169050919050565b6000612d9b82612d39565b612da58185612d44565b9350612db5818560208601612d55565b612dbe81612d7f565b840191505092915050565b60006020820190508181036000830152612de38184612d90565b905092915050565b6000819050919050565b612dfe81612deb565b8114612e0957600080fd5b50565b600081359050612e1b81612df5565b92915050565b600060208284031215612e3757612e36612c74565b5b6000612e4584828501612e0c565b91505092915050565b600073ffffffffffffffffffffffffffffffffffffffff82169050919050565b6000612e7982612e4e565b9050919050565b612e8981612e6e565b82525050565b6000602082019050612ea46000830184612e80565b92915050565b612eb381612e6e565b8114612ebe57600080fd5b50565b600081359050612ed081612eaa565b92915050565b60008060408385031215612eed57612eec612c74565b5b6000612efb85828601612ec1565b9250506020612f0c85828601612e0c565b9150509250929050565b600080fd5b600080fd5b7f4e487b7100000000000000000000000000000000000000000000000000000000600052604160045260246000fd5b612f5882612d7f565b810181811067ffffffffffffffff82111715612f7757612f76612f20565b5b80604052505050565b6000612f8a612c6a565b9050612f968282612f4f565b919050565b600067ffffffffffffffff821115612fb657612fb5612f20565b5b612fbf82612d7f565b9050602081019050919050565b82818337600083830152505050565b6000612fee612fe984612f9b565b612f80565b90508281526020810184848401111561300a57613009612f1b565b5b613015848285612fcc565b509392505050565b600082601f83011261303257613031612f16565b5b8135613042848260208601612fdb565b91505092915050565b6000806040838503121561306257613061612c74565b5b600083013567ffffffffffffffff8111156130805761307f612c79565b5b61308c8582860161301d565b925050602061309d85828601612e0c565b9150509250929050565b6130b081612deb565b82525050565b600060408201905081810360008301526130d08185612d90565b90506130df60208301846130a7565b9392505050565b6000806000606084860312156130ff576130fe612c74565b5b600061310d86828701612ec1565b935050602061311e86828701612ec1565b925050604061312f86828701612e0c565b9150509250925092565b600060208201905061314e60008301846130a7565b92915050565b60006020828403121561316a57613169612c74565b5b600061317884828501612ec1565b91505092915050565b61318a81612d03565b811461319557600080fd5b50565b6000813590506131a781613181565b92915050565b600080604083850312156131c4576131c3612c74565b5b60006131d285828601612ec1565b92505060206131e385828601613198565b9150509250929050565b600067ffffffffffffffff82111561320857613207612f20565b5b61321182612d7f565b9050602081019050919050565b600061323161322c846131ed565b612f80565b90508281526020810184848401111561324d5761324c612f1b565b5b613258848285612fcc565b509392505050565b600082601f83011261327557613274612f16565b5b813561328584826020860161321e565b91505092915050565b600080600080608085870312156132a8576132a7612c74565b5b60006132b687828801612ec1565b94505060206132c787828801612ec1565b93505060406132d887828801612e0c565b925050606085013567ffffffffffffffff8111156132f9576132f8612c79565b5b61330587828801613260565b91505092959194509250565b60008060006060848603121561332a57613329612c74565b5b600061333886828701612e0c565b935050602084013567ffffffffffffffff81111561335957613358612c79565b5b6133658682870161301d565b925050604061337686828701612e0c565b9150509250925092565b600081519050919050565b600082825260208201905092915050565b6000819050602082019050919050565b6133b581612deb565b82525050565b60006133c783836133ac565b60208301905092915050565b6000602082019050919050565b60006133eb82613380565b6133f5818561338b565b93506134008361339c565b8060005b8381101561343157815161341888826133bb565b9750613423836133d3565b925050600181019050613404565b5085935050505092915050565b6000602082019050818103600083015261345881846133e0565b905092915050565b600081519050919050565b600082825260208201905092915050565b6000819050602082019050919050565b61349581612e6e565b82525050565b600067ffffffffffffffff82169050919050565b6134b88161349b565b82525050565b6080820160008201516134d4600085018261348c565b5060208201516134e760208501826134af565b5060408201516134fa60408501826133ac565b50606082015161350d60608501826133ac565b50505050565b600061351f83836134be565b60808301905092915050565b6000602082019050919050565b600061354382613460565b61354d818561346b565b93506135588361347c565b8060005b838110156135895781516135708882613513565b975061357b8361352b565b92505060018101905061355c565b5085935050505092915050565b600060208201905081810360008301526135b08184613538565b905092915050565b6135c18161349b565b81146135cc57600080fd5b50565b6000813590506135de816135b8565b92915050565b6000806000606084860312156135fd576135fc612c74565b5b600061360b86828701612e0c565b935050602061361c86828701612ec1565b925050604061362d868287016135cf565b9150509250925092565b6000806040838503121561364e5761364d612c74565b5b600061365c85828601612ec1565b925050602061366d85828601612ec1565b9150509250929050565b7f4e487b7100000000000000000000000000000000000000000000000000000000600052602260045260246000fd5b600060028204905060018216806136be57607f821691505b6020821081036136d1576136d0613677565b5b50919050565b7f43616c6c6572206973206e6f74206f776e657200000000000000000000000000600082015250565b600061370d601383612d44565b9150613718826136d7565b602082019050919050565b6000602082019050818103600083015261373c81613700565b9050919050565b7f4e487b7100000000000000000000000000000000000000000000000000000000600052601160045260246000fd5b600061377d82612deb565b915061378883612deb565b92508282039050818111156137a05761379f613743565b5b92915050565b7f52656e74616c2068617320616c72656164792065787069726564000000000000600082015250565b60006137dc601a83612d44565b91506137e7826137a6565b602082019050919050565b6000602082019050818103600083015261380b816137cf565b9050919050565b600061381d82612deb565b915061382883612deb565b925082820261383681612deb565b9150828204841483151761384d5761384c613743565b5b5092915050565b7f4e487b7100000000000000000000000000000000000000000000000000000000600052601260045260246000fd5b600061388e82612deb565b915061389983612deb565b9250826138a9576138a8613854565b5b828204905092915050565b7f496e73756666696369656e7420636f6e74726163742062616c616e6365000000600082015250565b60006138ea601d83612d44565b91506138f5826138b4565b602082019050919050565b60006020820190508181036000830152613919816138dd565b9050919050565b7f417373697374616e742074656d706c617465206e6f7420666f756e6400000000600082015250565b6000613956601c83612d44565b915061396182613920565b602082019050919050565b6000602082019050818103600083015261398581613949565b9050919050565b7f4d696e696d756d2072656e74616c2074696d65206e6f74206d65740000000000600082015250565b60006139c2601b83612d44565b91506139cd8261398c565b602082019050919050565b600060208201905081810360008301526139f1816139b5565b9050919050565b7f4578636565646564206d6178696d756d2072656e74616c2074696d6500000000600082015250565b6000613a2e601c83612d44565b9150613a39826139f8565b602082019050919050565b60006020820190508181036000830152613a5d81613a21565b9050919050565b6000613a6f82612deb565b9150613a7a83612deb565b9250828201905080821115613a9257613a91613743565b5b92915050565b613aa18161349b565b82525050565b6000602082019050613abc6000830184613a98565b92915050565b6000613acd82612deb565b91507fffffffffffffffffffffffffffffffffffffffffffffffffffffffffffffffff8203613aff57613afe613743565b5b600182019050919050565b6000606082019050613b1f6000830186612e80565b613b2c60208301856130a7565b613b396040830184612e80565b949350505050565b600081905092915050565b6000613b5782612d39565b613b618185613b41565b9350613b71818560208601612d55565b80840191505092915050565b6000613b898285613b4c565b9150613b958284613b4c565b91508190509392505050565b60008190508160005260206000209050919050565b60006020601f8301049050919050565b600082821b905092915050565b600060088302613c037fffffffffffffffffffffffffffffffffffffffffffffffffffffffffffffffff82613bc6565b613c0d8683613bc6565b95508019841693508086168417925050509392505050565b6000819050919050565b6000613c4a613c45613c4084612deb565b613c25565b612deb565b9050919050565b6000819050919050565b613c6483613c2f565b613c78613c7082613c51565b848454613bd3565b825550505050565b600090565b613c8d613c80565b613c98818484613c5b565b505050565b5b81811015613cbc57613cb1600082613c85565b600181019050613c9e565b5050565b601f821115613d0157613cd281613ba1565b613cdb84613bb6565b81016020851015613cea578190505b613cfe613cf685613bb6565b830182613c9d565b50505b505050565b600082821c905092915050565b6000613d2460001984600802613d06565b1980831691505092915050565b6000613d3d8383613d13565b9150826002028217905092915050565b613d5682612d39565b67ffffffffffffffff811115613d6f57613d6e612f20565b5b613d7982546136a6565b613d84828285613cc0565b600060209050601f831160018114613db75760008415613da5578287015190505b613daf8582613d31565b865550613e17565b601f198416613dc586613ba1565b60005b82811015613ded57848901518255600182019150602085019450602081019050613dc8565b86831015613e0a5784890151613e06601f891682613d13565b8355505b6001600288020188555050505b505050505050565b7f4e487b7100000000000000000000000000000000000000000000000000000000600052603260045260246000fd5b7f63616e6e6f74206368616e676520757365720000000000000000000000000000600082015250565b6000613e84601283612d44565b9150613e8f82613e4e565b602082019050919050565b60006020820190508181036000830152613eb381613e77565b9050919050565b7f4d61782072656e74616c2074696d652065786365656465640000000000000000600082015250565b6000613ef0601883612d44565b9150613efb82613eba565b602082019050919050565b60006020820190508181036000830152613f1f81613ee3565b9050919050565b600081519050919050565b600082825260208201905092915050565b6000613f4d82613f26565b613f578185613f31565b9350613f67818560208601612d55565b613f7081612d7f565b840191505092915050565b6000608082019050613f906000830187612e80565b613f9d6020830186612e80565b613faa60408301856130a7565b8181036060830152613fbc8184613f42565b905095945050505050565b600081519050613fd681612caa565b92915050565b600060208284031215613ff257613ff1612c74565b5b600061400084828501613fc7565b91505092915050565b600060408201905061401e6000830185612e80565b61402b60208301846130a7565b939250505056fea2646970667358221220d373fa2cf4809014abc0e14ad142b9d6c8159894b4a0688d9c63f026eb0e1d0964736f6c63430008140033",
  "linkReferences": {},
  "deployedLinkReferences": {}
}